:020000040000FA
:1000000000008831A82800348A012000911DF32EB9
:10001000911124001512141E3E28003020005104B6
:10002000031D14282000CF012000C401C5012000B9
:100030004408423E2000AD000030AE0020004508DC
:100040000318450A031926282000AE0720002D08B2
:1000500084002E088500003080002000C40A0319A7
:10006000C50A4508803E803E031D0232023044022C
:10007000031C17282000C401C501F12E2400941A86
:10008000A528141DA02820004F08023A0319712842
:100090004F08053A031975284F08083A03197928BB
:1000A0004F080B3A03197D284F080D3A0319812890
:1000B0004F080E3A031985284F08123A0319892868
:1000C0004F08143A03198D284F081B3A0319912839
:1000D0004F081D3A031995284F08993A0319992892
:1000E0009D28023024009100F12E0530240091005B
:1000F000F12E083024009100F12E0B3024009100E5
:10010000F12E0D3024009100F12E0E3024009100CC
:10011000F12E123024009100F12E143024009100B1
:10012000F12E1B3024009100F12E1D30240091008F
:10013000F12E993024009100F12E24009101F12E2E
:10014000240011082000CE00F12E2400141D162AD0
:1001500020004F08023A0319D6284F08053A031920
:10016000EE284F08083A03193C294F080B3A0319A7
:100170008A294F080D3A03199A294F080E3A031994
:10018000AA294F08123A0319C2294F08143A031931
:10019000D0294F081B3A0319E8294F081D3A0319C3
:1001A000FD294F08993A0319062A0E2A2000AD01AD
:1001B00020000C1EDD282000AD0A20002D08AE0016
:1001C000013A031DE62824009101E92801302400AA
:1001D00091002000CF012000D101F12E2000440821
:1001E0004504031D022920000E19FA2801302400BD
:1001F0009100FD280230240091002000C40A031958
:10020000C50AF12E20000E191C29250018352000E2
:10021000AD00AD35AE0125001A0830392000AE0022
:10022000AE0E0F30AE052D08AF002E08AD002F0426
:10023000AE00240091003429250018352000AD00BF
:10024000AD35AE0125001A0830392000AE00AE0EE3
:100250000F30AE052D08AF002E08AD002F04AE0004
:10026000AD002D09240091002000CF012000D10114
:100270002000C401C501F12E200044084504031DDF
:10028000502920000E1A48290130240091004B29E2
:100290000230240091002000C40A0319C50AF12E7F
:1002A00020000E1A6A29250011352000AD00AD3559
:1002B000AE012500130830392000AE00AE0E0F301D
:1002C000AE052D08AF002E08AD002F04AE002400AF
:1002D00091008229250011352000AD00AD35AE0119
:1002E0002500130830392000AE00AE0E0F30AE05E9
:1002F0002D08AF002E08AD002F04AE00AD002D0973
:10030000240091002000CF012000D1012000C40171
:10031000C501F12E20005208013A031D9329013036
:10032000240091009529240091012000CF01200094
:10033000D101F12E20005308013A031DA3290130F9
:1003400024009100A529240091012000CF01200064
:10035000D101F12E2000AD0120000C1DB12920009B
:10036000AD0A20002D08AE00013A031DBA29240071
:100370009101BD290130240091002000CF0120000F
:10038000D101F12E28001719C82924009101CB2989
:100390000130240091002000CF012000D101F12E76
:1003A0002000AD0120008B1DD7292000AD0A2000C0
:1003B0002D08AE00013A031DE1290130240091000F
:1003C000E329240091012000CF012000D101F12E6A
:1003D00020005408013A0319F22920005508013A77
:1003E000031DF629013024009100F8292400910111
:1003F0002000CF012000D101F12E20004808240068
:1004000091002000CF012000D101F12E15302400F1
:1004100091002000CF012000D101F12E2400910194
:100420002000D1012000C401C501F12E00302000C0
:100430004F04031D522A240011082000CF004F084A
:10044000023A03194B2A4F08053A03194B2A4F0861
:10045000083A03194B2A4F080B3A03194B2A4F0845
:100460000D3A03194B2A4F080E3A03194B2A4F082D
:10047000123A03194B2A4F08143A03194B2A4F0812
:100480001B3A03194B2A4F081D3A03194B2A4F08F0
:10049000993A031D4F2A01302000D100F12E20008F
:1004A000D101F12E20004508803E803E031D02321E
:1004B00003304402031C602A02302000C400C5013E
:1004C00020004F08013A0319B22A4F08033A0319D2
:1004D000D22A4F08043A0319F42A4F08063A03199E
:1004E000162B4F08073A0319382B4F08093A0319FE
:1004F0005A2B4F080A3A03197A2B4F080C3A031962
:100500008E2B4F080F3A0319AF2B4F08103A0319DF
:10051000D12B4F08113A0319F32B4F08133A031943
:10052000152C4F08153A0319392C4F08163A0319A0
:100530008C2C4F08173A0319DF2C4F08183A03196F
:10054000322D4F08193A0319852D4F081A3A03190D
:10055000F42D4F081C3A0319632E4F08AA3A0319C9
:10056000AC2EEB2E200044084504031DC72A2400AE
:1005700011082000C2002000AD002D08031DC32A71
:1005800022000C16C52A22000C122000CF012400E4
:10059000141CCD2A11082000D0002000C40A031921
:1005A000C50AF12E200044084504031DE92A240051
:1005B00011082000C2002000AD00AE00AF012E08DF
:1005C000FE000030FF0000308A315C2282312000C2
:1005D000CF012400141CEF2A11082000D0002000B5
:1005E000C40A0319C50AF12E200044084504031D5E
:1005F0000B2B240011082000C2002000AD00AE002B
:10060000AF012E08FE000030FF0001308A315C226D
:1006100083312000CF012400141C112B110820006D
:10062000D0002000C40A0319C50AF12E2000440896
:100630004504031D2D2B240011082000C2002000BA
:10064000AD00AE00AF012E08FE000030FF0000300C
:100650008A31062283312000CF012400141C332B61
:1006600011082000D0002000C40A0319C50AF12E89
:10067000200044084504031D4F2B240011082000CE
:10068000C2002000AD00AE00AF012E08FE00003019
:10069000FF0001308A31062283312000CF0124007F
:1006A000141C552B11082000D0002000C40A031987
:1006B000C50AF12E200044084504031D6F2B0030AD
:1006C000FE000030FF0000308931282183312200F4
:1006D0000C162000D4012000D5012000CF012400F9
:1006E000141C752B11082000D0002000C40A031927
:1006F000C50AF12E200044084504031D832B200069
:10070000D2012000CF012400141C892B11082000E5
:10071000D0002000C40A0319C50AF12E20004408A5
:100720004504031DA42B240011082000C200200052
:10073000AD002D08031D9F2B2000D301A22B0130FB
:100740002000D3002000CF012400141CAA2B110884
:100750002000D0002000C40A0319C50AF12E200091
:1007600044084504031DC62B240011082000C200C4
:100770002000AD00AE00AF012E08FE000030FF00EB
:1007800000308931282183312000CF012400141C3E
:10079000CC2B11082000D0002000C40A0319C50A80
:1007A000F12E200044084504031DE82B2400110805
:1007B0002000C2002000AD00AE00AF012E08FE00F8
:1007C0000030FF0001308931282183312000CF0122
:1007D0002400141CEE2B11082000D0002000C40AB5
:1007E0000319C50AF12E200044084504031D0A2CF4
:1007F000240011082000C2002000AD002D08031DB8
:10080000042C28001711062C28001715200093101F
:100810002000CF012400141C102C11082000D0004F
:100820002000C40A0319C50AF12E2000440845041B
:10083000031D2E2C240011082000C2002000AD0052
:100840002D08031D282C00308B311A2384312C2CC9
:1008500001308B311A2384312000CF012400141C75
:10086000342C11082000D0002000C40A0319C50A46
:10087000F12E20004508803E803E031D02320230EA
:1008800044020318812C20004408423E2000AD00A1
:100890000030AE00200045080318450A0319522C09
:1008A0002000AE0720002D0884002E0885002400BB
:1008B0001108800020004408013A031D812C4508DE
:1008C000003A031D812C200042082000AD00B0003A
:1008D000AE00AF01AD01200043082000AE00AF0024
:1008E000B1012F08AD0700300318310FB0072D08F4
:1008F000FE003008FF0000308A31FB2284312000E6
:10090000CF012400141C872C11082000D0002000E7
:10091000C40A0319C50AF12E20004508803E803E16
:10092000031D0232023044020318D42C2000440874
:10093000423E2000AD000030AE0020004508031804
:10094000450A0319A52C2000AE0720002D088400BD
:100950002E08850024001108800020004408013A78
:10096000031DD42C4508003A031DD42C2000420856
:100970002000AD00B000AE00AF01AD012000430883
:100980002000AE00AF00B1012F08AD070030031802
:10099000310FB0072D08FE003008FF0001308A310A
:1009A000FB2284312000CF012400141CDA2C110812
:1009B0002000D0002000C40A0319C50AF12E20002F
:1009C0004508803E803E031D023202304402031877
:1009D000272D20004408423E2000AD000030AE002C
:1009E000200045080318450A0319F82C2000AE071B
:1009F00020002D0884002E088500240011088000A6
:100A000020004408013A031D272D4508003A031D24
:100A1000272D200042082000AD00B000AE00AF013D
:100A2000AD01200043082000AE00AF00B1012F0847
:100A3000AD0700300318310FB0072D08FE00300855
:100A4000FF0000308A31DC2285312000CF012400F4
:100A5000141C2D2D11082000D0002000C40A0319F9
:100A6000C50AF12E20004508803E803E031D02325B
:100A70000230440203187A2D20004408423E200030
:100A8000AD000030AE00200045080318450A0319E8
:100A90004B2D2000AE0720002D0884002E08850075
:100AA00024001108800020004408013A031D7A2D1B
:100AB0004508003A031D7A2D200042082000AD00B1
:100AC000B000AE00AF01AD01200043082000AE0031
:100AD000AF00B1012F08AD0700300318310FB00788
:100AE0002D08FE003008FF0001308A31DC228531FC
:100AF0002000CF012400141C802D11082000D000FC
:100B00002000C40A0319C50AF12E20004508803EC2
:100B1000803E031D0232023044020318E92D2000FA
:100B20004408423E2000AD000030AE0020004508E1
:100B30000318450A03199E2D2000AE0720002D083A
:100B400084002E088500240011088000200044083D
:100B5000013A031DE92D4508003A031DE92D200047
:100B600042082000AD00B000AE00AF01AD01200092
:100B700043082000AE00AF00B1012F08AD070030E0
:100B80000318310FB0072D08FE003008FF000030B9
:100B90008A31FB228531200042082000AD00B000E0
:100BA000AE00AF01AD01200043082000AE00B1004F
:100BB000B2013108AD0700300318320FB0072D081D
:100BC000FE003008FF0000308A31DC228531200031
:100BD000CF012400141CEF2D11082000D0002000AC
:100BE000C40A0319C50AF12E20004508803E803E44
:100BF000031D0232023044020318582E200044081C
:100C0000423E2000AD000030AE0020004508031831
:100C1000450A03190D2E2000AE0720002D08840080
:100C20002E08850024001108800020004408013AA5
:100C3000031D582E4508003A031D582E2000420877
:100C40002000AD00B100AE00B001AD0120004308AE
:100C50002000AE00B000B2013008AD07003003182C
:100C6000320FB1072D08FE003108FF0001308A3134
:100C7000FB228631200042082000AD00B100AE000A
:100C8000B001AD01200043082000AE00B200B30166
:100C90003208AD0700300318330FB1072D08FE00EE
:100CA0003108FF0001308A31DC2286312000CF017B
:100CB0002400141C5E2E11082000D0002000C40A5D
:100CC0000319C50AF12E200044084504031DA12E76
:100CD000240011082000C800C90120005408013A6E
:100CE000031D862E20004B08803E803E031D0232ED
:100CF00001304A02031C862E20004808FE004908E5
:100D0000FF00200056088A315C22863120005508F9
:100D1000013A031D9F2E20004D08803E803E031D9A
:100D2000023201304C02031C9F2E20004808FE00B6
:100D30004908FF00200057088A310622863120002A
:100D4000CF012400141CA72E11082000D000200081
:100D5000C40A0319C50AF12E200044084504031DE6
:100D6000E02E240011082000C2002000AD00033056
:100D70002D02031CBF2E78302D02031CC62E20002E
:100D8000CF012000C40A0319C50AF12E20002D3519
:100D9000240092002000121223001515910120005A
:100DA00042082300930055309600AA30960095140F
:100DB0002000121ED82E1212230015112000CF0180
:100DC0002400141CE62E11082000D0002000C40AC4
:100DD0000319C50AF12E2400141CF12E110820005D
:100DE000D0002400151620000B1C092F0B10270023
:100DF000131C002F1310FF302000CC07031CCD0361
:100E00002700931C092F9310FF302000CA07031CF2
:100E1000CB0309008B3133238731883100208731A0
:100E200022000C12F430FF0001308A31B2228731E7
:100E300022000C1620009111240011082000D0007F
:100E40002400151614181A2F20008B172000C60135
:100E5000C7012000931C572F93102000C60A0319C6
:100E6000C70A4708803E803E031D023220304602FA
:100E7000031C572F0030FE000030FF000030893186
:100E8000282187312000B40120000C1E492F2000AA
:100E9000B40A20003408B500013A031D522F220085
:100EA0000C12542F22000C162000C601C70120008E
:100EB000B40120008B1D5E2F2000B40A20003408EE
:100EC000B500013A031D962F003020005404031989
:100ED0007D2F20004B08803E803E031D02320130F2
:100EE0004A0203187D2F0030FE000030FF00003062
:100EF0008A315C2287312000D40100302000550463
:100F00000319962F20004D08803E803E031D0232BB
:100F100001304C020318962F0030FE000030FF0015
:100F200000308A31062287312000D50100302000B0
:100F30005304031DC42F003020005204031DC42F8E
:100F40002000B40120008C1EA72F2000B40A20002E
:100F50003408B500013A031DC42F01302000D2002F
:100F60000030FE000030FF0000308A315C22873103
:100F70000030FE000030FF0000308A310622873149
:100F80002000D4012000D5016400292F0800003A78
:100F90000319CF2F803A0319D72FFF0100347E08A1
:100FA00084007F0885001200FF00000808008731D8
:100FB000F127FD00FE0FFF03FF0A8731F127FC0038
:100FC0007D08FF007C080800003A0319EB2F803AE7
:100FD0000319F12F00347E0884007F088500000883
:100FE00008007F088A007E08820008000034003470
:100FF0000034003400340034FF3400340034003452
:1010000023008C018E0121000C148C140C150C1281
:101010008C168E140E148E110E118E120E122000CC
:101020000C128E110E118E120E1224001508F039BA
:101030000638950015161513951394131413961767
:1010400016141717971217129715171197101710D4
:10105000FE30930088309200951625001308F03971
:1010600093001A08F0399A0026001308F03993000B
:101070001A08F0399A0021008E168E153F30200094
:101080009B00250013083F3993001A083F399A0046
:101090001308F0390C3893001A08F0390C389A000C
:1010A00091011308CF39930098011A08CF399A009B
:1010B0001E08FC399E00F3399E0020001C08873969
:1010C0009C00FC3902389C001C1591102000911CDA
:1010D000662821008E128E113F30280096001708D6
:1010E00003389700783897001711200093102700D5
:1010F0009C131C1322009A139A111A119113911226
:101100009313931223009D1320000B1721009115B8
:10111000200091118B112700920112149214910159
:101120001114911420000B10230091019513151335
:10113000151413082000A10003302102031CA72866
:10114000783021020318A7282135240092000800D6
:101150009E30FE008930FF0080308731C7278831FC
:101160002000B7007F08B600A030B8008930B90071
:1011700020003608BA003708BB00FF30B607031C52
:10118000B7033A083B040319252904303807BA008D
:10119000BB01BB0D3908BB073A08FE003B08FF0046
:1011A00080308731C72788312000BD007F08BC0010
:1011B0003808FE003908FF0080308731C7278831A2
:1011C0002000BF00BB007F08BE00BA000230380715
:1011D000BA00BB01BB0D3908BB073A08FE003B084B
:1011E000FF0080308731C72788312000BB00C10055
:1011F0007F08BA00C00020003C08C0003D08C100C4
:10120000FF30BC07031CBD034008410403191F291C
:101210003E08FE003F08FF0080308731E427893117
:101220002000C0003A0884003B0885004008800088
:10123000BE0A0319BF0ABA0A0319BB0AFB28063003
:101240002000B8070318B90AB82887310A2F080008
:101250002000A1007F08A0007E08A2002000520804
:10126000013A031D3C29003020005304031D3C2992
:101270002000A101A201A00120002008803E7F3EA5
:10128000031D023200302202031C4A29FF302000D5
:10129000A200A00120002108013A031D63290130AA
:1012A0002000D60001302000D7002000A20903143E
:1012B0002008031C200A003CA000143020000E046B
:1012C00022008E006C292000D6012000D701EB30CF
:1012D00020000E0522008E00200091102000911C9D
:1012E0006E2920002037A300220CA100A337A10CF7
:1012F00025009800200021082500910003302000DF
:10130000A205A0010339A500A50EF030A505250012
:101310001A08CF392000250425009A002000220851
:10132000A1000339A500A50EF030A505250013087E
:10133000CF39200025042500930008001134003423
:10134000033400344E3400340134003442340B345E
:101350004F34003401340034F6340734423400345E
:1013600002340034F8340734443400340234003496
:1013700043340B34503400340134003444340B34DF
:10138000513400340134003445340B3452340034C9
:101390000134003446340B34533400340134003407
:1013A000FA340734463400340234003447340B3402
:1013B000543400340134003448340B345534003490
:1013C0000134003449340B345634003401340034D1
:1013D0004A340B345734003401340034FC340734BD
:1013E0004834003402340034FE3407344A340034C4
:1013F0000234003440340B344C34003402340034B2
:101400004B340B3458340034013400342000A10034
:101410007F08A0007E08A20020005208013A031DA8
:101420001A2A003020005304031D1A2A2000A101AB
:10143000A201A00120002008803E7F3E031D023251
:1014400000302202031C282AFF302000A200A00145
:1014500020002108013A031D3B2A01302000D7005B
:101460002000A20903142008031C200A003CA0004D
:1014700022000E163F2A2000D70122000E12200063
:101480002037A300220CA100A337A10C21082500BE
:10149000910003302000A205A0012208A100033919
:1014A000A400A40EF030A40525001308CF392000B5
:1014B00024042500930008002000A1007F08A0005C
:1014C0007E08A20020005208013A031D702A003055
:1014D00020005304031D702A2000A101A201A001D5
:1014E00020002008803E7F3E031D02320030220291
:1014F000031C7E2AFF302000A200A001200021084A
:10150000013A031D912A01302000D6002000A209D3
:1015100003142008031C200A003CA00022000E1522
:10152000952A2000D60122000E1120002037A300AA
:10153000220CA100A337A10C21082500980003303C
:101540002000A205A0012208A1000339A400A40ED6
:10155000F030A40525001A08CF3920002404250006
:101560009A0008002000A1007F08A00020002008A9
:10157000A2002108A300FF30A007031CA10322083A
:1015800023040319DB2A7630A2000430A3000000F4
:10159000FF3020002207A400FF30A5002308031815
:1015A000230FA5072408A2002508A300240825046A
:1015B000031DC72AB62A08002000AA007F08AC0035
:1015C0007E08AB0020008B1DFA2A20002B0820008B
:1015D000CC0020002C082000CD0020004808FE0090
:1015E0004908FF0020002A088A3106228A3101308A
:1015F0002000D50008002000A7007F08A9007E0871
:10160000A80020008B1D192B200028082000CA00EC
:10161000200029082000CB0020004808FE004908CF
:10162000FF00200027088A315C228B310130200026
:10163000D40008002000A6002000D4012000D5011D
:101640000030FE000030FF000030893128218B314E
:1016500020002608013A031D302B20008B15322B69
:1016600020008B11080021001908FC3999008739E6
:101670007038990099171808C0391F389800080069
:1016800000340034003400340034003400340034BA
:08169000003400340034003482
:020000040001F9
:02000E00C42FFD
:02001000FF1FD0
:00000001FF
