:020000040000FA
:1000000000008831002800348A012000911D6C2EE8
:10001000911124001512141E39282000CE01200051
:10002000C301C40120004308413E2000AC00003061
:10003000AD00200044080318440A031921282000B9
:10004000AD0720002C0884002D08850000308000BA
:100050002000C30A0319C40A4408803E803E031DE1
:10006000023202304302031C12282000C301C401E3
:100070006A2E2400941AA228141D9B2820004E08E2
:10008000023A03196C284E08053A031970284E08E5
:10009000083A031974284E080B3A031978284E08B9
:1000A0000D3A03197C284E080E3A031980284E0891
:1000B000123A031984284E08143A031988284E0866
:1000C0001B3A03198C284E081D3A031990284E0834
:1000D000993A0319942898280230240091006A2E36
:1000E0000530240091006A2E0830240091006A2E09
:1000F0000B30240091006A2E0D30240091006A2EEE
:100100000E30240091006A2E1230240091006A2ED5
:100110001430240091006A2E1B30240091006A2EB6
:100120001D30240091006A2E9930240091006A2E1F
:10013000240091016A2E240011082000CD00240023
:1001400015166A2E2400141DF32920004E08023AC9
:100150000319D3284E08053A0319E9284E08083A2E
:10016000031935294E080B3A031981294E080D3A17
:1001700003198F294E080E3A03199D294E08123A89
:100180000319B3294E08143A0319BF294E081B3A24
:100190000319CD294E081D3A0319E0294E08993A52
:1001A0000319E729ED292000AC0120000C1EDA28F4
:1001B0002000AC0A20002C08AD00013A031DE32802
:1001C00024009101E6280130240091002000CE0196
:1001D0006A2E200043084404031DFD2820000E1948
:1001E000F528013024009100F82802302400910005
:1001F0002000C30A0319C40A6A2E20000E19172909
:10020000250018352000AC00AC35AD0125001A08DA
:1002100030392000AD00AD0E0F30AD052C08AE001A
:100220002D08AC002E04AD00240091002F292500DC
:1002300018352000AC00AC35AD0125001A08303966
:100240002000AD00AD0E0F30AD052C08AE002D081E
:10025000AC002E04AD00AC002C092400910020005D
:10026000CE012000C301C4016A2E200043084404CB
:10027000031D492920000E1A412901302400910054
:1002800044290230240091002000C30A0319C40A43
:100290006A2E20000E1A6329250011352000AC00BB
:1002A000AC35AD012500130830392000AD00AD0E8E
:1002B0000F30AD052C08AE002D08AC002E04AD00AB
:1002C000240091007B29250011352000AC00AC35BD
:1002D000AD012500130830392000AD00AD0E0F3000
:1002E000AD052C08AE002D08AC002E04AD00AC000E
:1002F0002C09240091002000CE012000C301C4017C
:100300006A2E00302000510403198A29013024008C
:1003100091008C29240091012000CE016A2E00302A
:1003200020005204031998290130240091009A29D1
:10033000240091012000CE016A2E2000AC01200093
:100340000C1DA4292000AC0A20002C08AD00013AA5
:10035000031DAD2924009101B02901302400910032
:100360002000CE016A2E28001719B9292400910116
:10037000BC290130240091002000CE016A2E0030FB
:10038000200053040319C829013024009100CA2910
:10039000240091012000CE016A2E00302000540478
:1003A000031DD7290030200055040319DB29013033
:1003B00024009100DD29240091012000CE016A2E45
:1003C00020004708240091002000CE016A2E15303D
:1003D000240091002000CE016A2E2400910120000B
:1003E000C301C4016A2E003020004E04031DFD2904
:1003F000240011082000CE006A2E20004408803E10
:10040000803E031D023203304302031C0B2A0230DC
:100410002000C300C40120004E08013A03195D2AE0
:100420004E08033A03197D2A4E08043A03199F2AFD
:100430004E08063A0319C12A4E08073A0319E32A5F
:100440004E08093A0319052B4E080A3A0319252BC1
:100450004E080C3A0319392B4E080F3A03195A2B40
:100460004E08103A03197C2B4E08113A03199E2BA3
:100470004E08133A0319C02B4E08153A0319E42B02
:100480004E08163A0319372C4E08173A03198A2CCE
:100490004E08183A0319DD2C4E08193A0319302D6D
:1004A0004E081A3A03199F2D4E081C3A03190E2EB6
:1004B0004E08AA3A0319252E642E2000430844044E
:1004C000031D722A240011082000C1002000AC0086
:1004D0002C08031D6E2A22000C16702A22000C1212
:1004E0002000CE012400141C782A11082000CF001F
:1004F0002000C30A0319C40A6A2E200043084404DA
:10050000031D942A240011082000C1002000AC0023
:10051000AD00AE012D08FE000030FF000030893133
:100520009D2182312000CE012400141C9A2A11083A
:100530002000CF002000C30A0319C40A6A2E20003D
:1005400043084404031DB62A240011082000C100FA
:100550002000AC00AD00AE012D08FE000030FF0011
:10056000013089319D2182312000CE012400141CEC
:10057000BC2A11082000CF002000C30A0319C40AB6
:100580006A2E200043084404031DD82A24001108C1
:100590002000C1002000AC00AD00AE012D08FE001F
:1005A0000030FF00003089314D2182312000CE0122
:1005B0002400141CDE2A11082000CF002000C30AEA
:1005C0000319C40A6A2E200043084404031DFA2AB2
:1005D000240011082000C1002000AC00AD00AE01D5
:1005E0002D08FE000030FF00013089314D2182319D
:1005F0002000CE012400141C002B11082000CF0085
:100600002000C30A0319C40A6A2E200043084404C8
:10061000031D1A2B0030FE000030FF00003088312F
:100620008020833122000C162000D4012000D50147
:100630002000CE012400141C202B11082000CF0024
:100640002000C30A0319C40A6A2E20004308440488
:10065000031D2E2B2000D1012000CE012400141CEC
:10066000342B11082000CF002000C30A0319C40A4C
:100670006A2E200043084404031D4F2B2400110858
:100680002000C1002000AC002C08031D4A2B2000D4
:10069000D2014D2B01302000D2002000CE012400D9
:1006A000141C552B11082000CF002000C30A031989
:1006B000C40A6A2E200043084404031D712B240041
:1006C00011082000C1002000AC00AD00AE012D08D3
:1006D000FE000030FF000030883180208331200090
:1006E000CE012400141C772B11082000CF0020001D
:1006F000C30A0319C40A6A2E200043084404031DD8
:10070000932B240011082000C1002000AC00AD0094
:10071000AE012D08FE000030FF000130883180203E
:1007200083312000CE012400141C992B11082000D5
:10073000CF002000C30A0319C40A6A2E2000430810
:100740004404031DB52B240011082000C100200023
:10075000AC002C08031DAF2B28001711B12B28006B
:100760001715200093102000CE012400141CBB2B71
:1007700011082000CF002000C30A0319C40A6A2E02
:10078000200043084404031DD92B24001108200035
:10079000C1002000AC002C08031DD32B00308A318F
:1007A00059228331D72B01308A31592283312000DD
:1007B000CE012400141CDF2B11082000CF002000E4
:1007C000C30A0319C40A6A2E20004408803E803EF2
:1007D000031D02320230430203182C2C2000430870
:1007E000413E2000AC000030AD002000440803185A
:1007F000440A0319FD2B2000AD0720002C088400BB
:100800002D08850024001108800020004308013ACB
:10081000031D2C2C4408003A031D2C2C20004108F9
:100820002000AC00AF00AD00AE01AC0120004208DA
:100830002000AD00AE00B0012E08AC070030031858
:10084000300FAF072C08FE002F08FF0000308A3160
:10085000382284312000CE012400141C322C1108CF
:100860002000CF002000C30A0319C40A6A2E20000A
:100870004408803E803E031D0232023043020318CA
:100880007F2C20004308413E2000AC000030AD002A
:10089000200044080318440A0319502C2000AD0717
:1008A00020002C0884002D088500240011088000F9
:1008B00020004308013A031D7F2C4408003A031D21
:1008C0007F2C200041082000AC00AF00AD00AE013D
:1008D000AC01200042082000AD00AE00B0012E089F
:1008E000AC0700300318300FAF072C08FE002F08AC
:1008F000FF0001308A31382284312000CE012400EB
:10090000141C852C11082000CF002000C30A0319F5
:10091000C40A6A2E20004408803E803E031D023235
:10092000023043020318D22C20004308413E20002D
:10093000AC000030AD00200044080318440A03193D
:10094000A32C2000AD0720002C0884002D08850072
:1009500024001108800020004308013A031DD22C16
:100960004408003A031DD22C200041082000AC00AE
:10097000AF00AD00AE01AC01200042082000AD0088
:10098000AE00B0012E08AC0700300318300FAF07DF
:100990002C08FE002F08FF0000308A311722843116
:1009A0002000CE012400141CD82C11082000CF00F8
:1009B0002000C30A0319C40A6A2E20004408803E9E
:1009C000803E031D0232023043020318252D200011
:1009D0004308413E2000AC000030AD002000440838
:1009E0000318440A0319F62C2000AD0720002C0838
:1009F00084002D0885002400110880002000430891
:100A0000013A031D252D4408003A031D252D200021
:100A100041082000AC00AF00AD00AE01AC012000E9
:100A200042082000AD00AE00B0012E08AC07003037
:100A30000318300FAF072C08FE002F08FF0001300D
:100A40008A31172285312000CE012400141C2B2D61
:100A500011082000CF002000C30A0319C40A6A2E1F
:100A600020004408803E803E031D023202304302D3
:100A70000318942D20004308413E2000AC000030B4
:100A8000AD00200044080318440A0319492D200032
:100A9000AD0720002C0884002D08850024001108D3
:100AA000800020004308013A031D942D4408003AB9
:100AB000031D942D200041082000AC00AF00AD00C4
:100AC000AE01AC01200042082000AD00AE00B00134
:100AD0002E08AC0700300318300FAF072C08FE00BB
:100AE0002F08FF0000308A3138228531200041086C
:100AF0002000AC00AF00AD00AE01AC012000420808
:100B00002000AD00B000B1013008AC070030031880
:100B1000310FAF072C08FE002F08FF0000308A318C
:100B2000172285312000CE012400141C9A2D1108B3
:100B30002000CF002000C30A0319C40A6A2E200037
:100B40004408803E803E031D0232023043020318F7
:100B5000032E20004308413E2000AC000030AD00D1
:100B6000200044080318440A0319B82D2000AD07DB
:100B700020002C0884002D08850024001108800026
:100B800020004308013A031D032E4408003A031DC8
:100B9000032E200041082000AC00B000AD00AF01E2
:100BA000AC01200042082000AD00AF00B1012F08C9
:100BB000AC0700300318310FB0072C08FE003008D6
:100BC000FF0001308A3138228531200041082000A1
:100BD000AC00B000AD00AF01AC0120004208200025
:100BE000AD00B100B2013108AC0700300318320F7C
:100BF000B0072C08FE003008FF0001308A311722B0
:100C000086312000CE012400141C092E110820007A
:100C1000CF002000C30A0319C40A6A2E200043082B
:100C20004404031D1A2E240011082000C700C80127
:100C30002000CE012400141C202E11082000CF001B
:100C40002000C30A0319C40A6A2E20004308440482
:100C5000031D592E240011082000C1002000AC0003
:100C600003302C02031C382E78302C02031C3F2E3C
:100C70002000CE012000C30A0319C40A6A2E2000F6
:100C80002C3524009200200012122300151591012A
:100C9000200041082300930055309600AA309600AA
:100CA00095142000121E512E12122300151120003F
:100CB000CE012400141C5F2E11082000CF0020005C
:100CC000C30A0319C40A6A2E2400141C6A2E1108D0
:100CD0002000CF002400151609008A3173228631C6
:100CE00087312227863122000C12F430FF000130B8
:100CF0008931ED21863122000C162000911124004B
:100D000011082000CF002400151614187D2E200095
:100D10008B172000C501C6012000931CBA2E93102A
:100D20002000C50A0319C60A4608803E803E031DFE
:100D3000023220304502031CBA2E0030FE00003083
:100D4000FF0000308831802086312000B301200070
:100D50000C1EAC2E2000B30A20003308B400013A68
:100D6000031DB52E22000C12B72E22000C162000F7
:100D7000C501C6010030200053040319F12E0030D4
:100D8000200054040319D82E20004A08803E803EDB
:100D9000031D0232013049020318D82E0030FE0034
:100DA0000030FF00003089319D2186312000D401C0
:100DB0000030200055040319F12E20004C08803E1D
:100DC000803E031D023201304B020318F12E003029
:100DD000FE000030FF00003089314D2186312000B7
:100DE000D501003020005204031D1F2F00302000C9
:100DF0005104031D1F2F2000B30120008C1E022F61
:100E00002000B30A20003308B400013A031D1F2F4D
:100E100001302000D1000030FE000030FF00003023
:100E200089319D2187310030FE000030FF00003005
:100E300089314D2187312000D4012000D501640083
:100E40008C2E080023008C018E0121000C148C14C0
:100E50000C150C128C168E140E148E110E118E128F
:100E60000E1220000C128E110E118E120E12240082
:100E70001508F039063895001516151395139413B7
:100E80001413961716141717971217129715171190
:100E900097101710FE3093008830920095162500A9
:100EA0001308F03993001A08F0399A002600130845
:100EB000F03993001A08F0399A0021008E168E1529
:100EC0003F3020009B00250013083F3993001A088B
:100ED0003F399A001308F0390C3893001A08F0399A
:100EE0000C389A0091011308CF39930098011A0821
:100EF000CF399A001E08FC399E00F3399E0020006D
:100F00001C0887399C00FC3902389C001C15911084
:100F10002000911C882F21008E128E113F30280056
:100F200096001708033897007838970017112000AB
:100F3000931027009C131C1322009A139A111A1164
:100F4000911391129313931223009D1320000B17FA
:100F500021009115200091118B112700920112148C
:100F6000921491011114911420000B10230091018F
:100F700095131513151413082000A1000330210246
:100F8000031CC92F783021020318C92F21352400F2
:100F900092000800003A0319D22F803A0319DA2F81
:100FA000FF0100347E0884007F0885001200FF00E6
:100FB000000808008731F427FD00FE0FFF03FF0A39
:100FC0008731F427FC007D08FF007C080800003A08
:100FD0000319EE2F803A0319F42F00347E088400A1
:100FE0007F088500000808007F088A007E088200CC
:100FF000080000340034003400340034003400347D
:10100000EB30FE008830FF0080308731CA278831FE
:101010002000B6007F08B500ED30B7008830B8007A
:1010200020003508B9003608BA00FF30B507031CA8
:10103000B60339083A0403197D2804303707B9008C
:10104000BA01BA0D3808BA073908FE003A08FF009D
:1010500080308731CA2788312000BC007F08BB0060
:101060003708FE003808FF0080308731CA278831F2
:101070002000BE00BA007F08BD00B900023037076B
:10108000B900BA01BA0D3808BA073908FE003A08A3
:10109000FF0080308731CA2788312000BA00C000A5
:1010A0007F08B900BF0020003B08BF003C08C0001B
:1010B000FF30BB07031CBC033F084004031977281B
:1010C0003D08FE003E08FF0080308731E727883169
:1010D0002000BF00390884003A0885003F088000DE
:1010E000BD0A0319BE0AB90A0319BA0A5328063001
:1010F0002000B7070318B80A102886316D2E0800A3
:101100002000A1007F08A0007E08A200003020007F
:10111000510403199428003020005204031D942820
:101120002000A101A201A00120002008803E7F3EF6
:10113000031D023200302202031CA228FF302000CF
:10114000A200A0010030200021040319B428A20944
:1011500003142008031C200A003CA00014302000C7
:101160000E0422008E00B928EB3020000E0522006C
:101170008E00200091102000911CBB2820002037F9
:10118000A300220CA100A337A10C25009800200089
:1011900021082500910003302000A205A001033999
:1011A000A500A50EF030A50525001A08CF392000AE
:1011B000250425009A0020002208A1000339A5007B
:1011C000A50EF030A50525001308CF392000250411
:1011D00025009300080010340034033400344D34EB
:1011E000003401340034FF3407344E340034013409
:1011F0000034F93407344134003402340034863486
:101200000A344F34003401340034FB34073443349F
:1012100000340234003487340A345034003401344A
:10122000003488340A3451340034013400348934B1
:101230000A345234003401340034FD340734453468
:101240000034023400348A340A3453340034013414
:1012500000348B340A3454340034013400348C3478
:101260000A34553400340134003480340A344734AD
:1012700000340234003482340A34493400340234F5
:10128000003484340A344B340034023400348D3456
:101290000A3456340034013400342000A1007F08A1
:1012A000A0007E08A200003020005104031961292B
:1012B000003020005204031D61292000A101A20179
:1012C000A00120002008803E7F3E031D0232003036
:1012D0002202031C6F29FF302000A200A001003071
:1012E0002000210403197E29A20903142008031CED
:1012F000200A003CA00022000E16802922000E12B7
:1013000020002037A300220CA100A337A10C210844
:101310002500910003302000A205A0012208A100B1
:101320000339A400A40EF030A40525001308CF391A
:10133000200024042500930008002000A1007F085D
:10134000A0007E08A2000030200051040319B1293A
:10135000003020005204031DB1292000A101A20188
:10136000A00120002008803E7F3E031D0232003095
:101370002202031CBF29FF302000A200A001003080
:10138000200021040319CE29A20903142008031CFC
:10139000200A003CA00022000E15D02922000E11C8
:1013A00020002037A300220CA100A337A10C2108A4
:1013B0002500980003302000A205A0012208A1000A
:1013C0000339A400A40EF030A40525001A08CF3973
:1013D0002000240425009A0008002000A1007F08B6
:1013E000A00020002008A2002108A300FF30A007D1
:1013F000031CA103220823040319162A7630A20035
:101400000430A3000000FF3020002207A400FF30BA
:10141000A50023080318230FA5072408A200250808
:10142000A30024082504031D022AF1290800200036
:10143000A9007F08AB007E08AA00003020005304FA
:101440000319372A20002A082000CB0020002B088F
:101450002000CC0020004708FE004808FF002000C4
:10146000290889314D218A3101302000D50008003A
:101470002000A6007F08A8007E08A70000302000FA
:1014800053040319582A200027082000C90020000F
:1014900028082000CA0020004708FE004808FF0076
:1014A0002000260889319D218A3101302000D40096
:1014B00008002000D300D3012000D4012000D50172
:1014C0000030FE000030FF000030883180208A317B
:1014D0000030200053040319702A20008B15722A53
:1014E00020008B11080021001908FC399900873968
:1014F0007038990099171808C0391F3898000800EB
:10150000FF3400340034003400340034003400343C
:0C15100000340034003400340034003497
:020000040001F9
:02000E00C42FFD
:02001000FF1FD0
:00000001FF
