:020000040000FA
:1000000000008831A82800348A0120000B1C1C281D
:100010000B102700131C12281310FF302000CC07F0
:10002000031CCD032700931C1B289310FF302000D6
:10003000CA07031CCB030A2F2000911D0A2F911120
:1000400024001512141E5528003020005104031DF1
:100050002B282000CF012000C401C5012000440846
:10006000423E2000AD000030AE00200045080318DD
:10007000450A03193D282000AE0720002D08840002
:100080002E088500003080002000C40A0319C50A2C
:100090004508803E803E031D023202304402031CAC
:1000A0002E282000C401C501082F2400941ABC2862
:1000B000141DB72820004F08023A031988284F085A
:1000C000053A03198C284F08083A031990284F085D
:1000D0000B3A031994284F080D3A031998284F0832
:1000E0000E3A03199C284F08123A0319A0284F080A
:1000F000143A0319A4284F081B3A0319A8284F08DB
:100100001D3A0319AC284F08993A0319B028B428AE
:10011000023024009100082F053024009100082FA0
:10012000083024009100082F0B3024009100082F84
:100130000D3024009100082F0E3024009100082F6C
:10014000123024009100082F143024009100082F51
:100150001B3024009100082F1D3024009100082F2F
:10016000993024009100082F24009101082F2400C9
:1001700011082000CE00082F2400141D2D2A200075
:100180004F08023A0319ED284F08053A03190529CB
:100190004F08083A031953294F080B3A0319A129AC
:1001A0004F080D3A0319B1294F080E3A0319C12916
:1001B0004F08123A0319D9294F08143A0319E729AD
:1001C0004F081B3A0319FF294F081D3A0319142A37
:1001D0004F08993A03191D2A252A2000AD01200055
:1001E0000C1EF4282000AD0A20002D08AE00013AB4
:1001F000031DFD28240091010029013024009100F5
:100200002000CF012000D101082F20004408450420
:10021000031D192920000E19112901302400910015
:1002200014290230240091002000C40A0319C50AD1
:10023000082F20000E193329250018352000AD00A5
:10024000AD35AE0125001A0830392000AE00AE0EE3
:100250000F30AE052D08AF002E08AD002F04AE0004
:10026000240091004B29250018352000AD00AD3544
:10027000AE0125001A0830392000AE00AE0E0F3056
:10028000AE052D08AF002E08AD002F04AE00AD0066
:100290002D09240091002000CF012000D101200071
:1002A000C401C501082F200044084504031D672927
:1002B00020000E1A5F2901302400910062290230CB
:1002C000240091002000C40A0319C50A082F200049
:1002D0000E1A8129250011352000AD00AD35AE0183
:1002E0002500130830392000AE00AE0E0F30AE05E9
:1002F0002D08AF002E08AD002F04AE0024009100A1
:100300009929250011352000AD00AD35AE0125003D
:10031000130830392000AE00AE0E0F30AE052D08A8
:10032000AF002E08AD002F04AE00AD002D09240053
:1003300091002000CF012000D1012000C401C5019F
:10034000082F20005208013A031DAA290130240079
:100350009100AC29240091012000CF012000D1019F
:10036000082F20005308013A031DBA290130240048
:100370009100BC29240091012000CF012000D1016F
:10038000082F2000AD0120000C1DC8292000AD0A57
:1003900020002D08AE00013A031DD129240091014F
:1003A000D4290130240091002000CF012000D10188
:1003B000082F28001719DF2924009101E2290130B4
:1003C000240091002000CF012000D101082F20003F
:1003D000AD0120008B1DEE292000AD0A20002D0864
:1003E000AE00013A031DF829013024009100FA29DA
:1003F000240091012000CF012000D101082F20000E
:100400005408013A0319092A20005508013A031D2E
:100410000D2A0130240091000F2A240091012000B0
:10042000CF012000D101082F2000480824009100AE
:100430002000CF012000D101082F153024009100A9
:100440002000CF012000D101082F240091012000BD
:10045000D1012000C401C501082F003020004F0445
:10046000031D692A240011082000CF004F08023A1A
:100470000319622A4F08053A0319622A4F08083AFD
:100480000319622A4F080B3A0319622A4F080D3AE2
:100490000319622A4F080E3A0319622A4F08123ACA
:1004A0000319622A4F08143A0319622A4F081B3AAB
:1004B0000319622A4F081D3A0319622A4F08993A14
:1004C000031D662A01302000D100082F2000D10131
:1004D000082F20004508803E803E031D0232033075
:1004E0004402031C772A02302000C400C50120000A
:1004F0004F08013A0319C92A4F08033A0319E92A98
:100500004F08043A03190B2B4F08063A03192D2BF9
:100510004F08073A03194F2B4F08093A0319712B5B
:100520004F080A3A0319912B4F080C3A0319A52BCF
:100530004F080F3A0319C62B4F08103A0319E82B3E
:100540004F08113A03190A2C4F08133A03192C2C9F
:100550004F08153A0319502C4F08163A0319A32CCB
:100560004F08173A0319F62C4F08183A0319492D6A
:100570004F08193A03199C2D4F081A3A03190B2EEC
:100580004F081C3A03197A2E4F08AA3A0319C32EB2
:10059000022F200044084504031DDE2A2400110810
:1005A0002000C2002000AD002D08031DDA2A220021
:1005B0000C16DC2A22000C122000CF012400141C8F
:1005C000E42A11082000D0002000C40A0319C50A3B
:1005D000082F200044084504031D002B24001108A7
:1005E0002000C2002000AD00AE00AF012E08FE00CA
:1005F0000030FF0000308A315C2282312000CF01C0
:100600002400141C062B11082000D0002000C40A6E
:100610000319C50A082F200044084504031D222B96
:10062000240011082000C2002000AD00AE00AF0180
:100630002E08FE000030FF0001308A315C22833139
:100640002000CF012400141C282B11082000D0000A
:100650002000C40A0319C50A082F200044084504D5
:10066000031D442B240011082000C2002000AD000F
:10067000AE00AF012E08FE000030FF0000308A31CE
:10068000062283312000CF012400141C4A2B1108BC
:100690002000D0002000C40A0319C50A082F20003A
:1006A00044084504031D662B240011082000C200E5
:1006B0002000AD00AE00AF012E08FE000030FF00AC
:1006C00001308A31062283312000CF012400141C1E
:1006D0006C2B11082000D0002000C40A0319C50AA1
:1006E000082F200044084504031D862B0030FE001F
:1006F0000030FF00003089312821833122000C16A0
:100700002000D4012000D5012000CF012400141CBA
:100710008C2B11082000D0002000C40A0319C50A40
:10072000082F200044084504031D9A2B2000D20105
:100730002000CF012400141CA02B11082000D000A1
:100740002000C40A0319C50A082F200044084504E4
:10075000031DBB2B240011082000C2002000AD00A7
:100760002D08031DB62B2000D301B92B013020002A
:10077000D3002000CF012400141CC12B110820003D
:10078000D0002000C40A0319C50A082F200044081D
:100790004504031DDD2B240011082000C2002000A9
:1007A000AD00AE00AF012E08FE000030FF000030AB
:1007B0008931282183312000CF012400141CE32B30
:1007C00011082000D0002000C40A0319C50A082F10
:1007D000200044084504031DFF2B240011082000BD
:1007E000C2002000AD00AE00AF012E08FE000030B8
:1007F000FF0001308931282183312000CF012400FE
:10080000141C052C11082000D0002000C40A031974
:10081000C50A082F200044084504031D212C24008C
:1008200011082000C2002000AD002D08031D1B2C64
:10083000280017111D2C28001715200093102000E8
:10084000CF012400141C272C11082000D000200008
:10085000C40A0319C50A082F200044084504031DD3
:10086000452C240011082000C2002000AD002D08F6
:10087000031D3F2C00308B311A238431432C01306F
:100880008B311A2384312000CF012400141C4B2CFF
:1008900011082000D0002000C40A0319C50A082F3F
:1008A00020004508803E803E031D02320230440293
:1008B0000318982C20004408423E2000AD00003070
:1008C000AE00200045080318450A0319692C2000D2
:1008D000AE0720002D0884002E0885002400110892
:1008E000800020004408013A031D982C4508003A76
:1008F000031D982C200042082000AD00B000AE007F
:10090000AF01AD01200043082000AE00AF00B101EF
:100910002F08AD0700300318310FB0072D08FE0077
:100920003008FF0000308A31FB2284312000CF01E3
:100930002400141C9E2C11082000D0002000C40AA2
:100940000319C50A082F20004508803E803E031D7C
:100950000232023044020318EB2C20004408423ECD
:100960002000AD000030AE00200045080318450A05
:100970000319BC2C2000AE0720002D0884002E088F
:10098000850024001108800020004408013A031D5E
:10099000EB2C4508003A031DEB2C200042082000F8
:1009A000AD00B000AE00AF01AD0120004308200053
:1009B000AE00AF00B1012F08AD0700300318310FB2
:1009C000B0072D08FE003008FF0001308A31FB22FD
:1009D00084312000CF012400141CF12C11082000C8
:1009E000D0002000C40A0319C50A082F20004508BA
:1009F000803E803E031D02320230440203183E2D29
:100A000020004408423E2000AD000030AE0020002F
:100A100045080318450A03190F2D2000AE072000D2
:100A20002D0884002E088500240011088000200075
:100A30004408013A031D3E2D4508003A031D3E2D92
:100A4000200042082000AD00B000AE00AF01AD01B3
:100A5000200043082000AE00AF00B1012F08AD0711
:100A600000300318310FB0072D08FE003008FF00DA
:100A700000308A31DC2285312000CF012400141C93
:100A8000442D11082000D0002000C40A0319C50A13
:100A9000082F20004508803E803E031D02320230B0
:100AA00044020318912D20004408423E2000AD006E
:100AB0000030AE00200045080318450A0319622DD6
:100AC0002000AE0720002D0884002E088500240099
:100AD0001108800020004408013A031D912D4508AB
:100AE000003A031D912D200042082000AD00B00007
:100AF000AE00AF01AD01200043082000AE00AF0002
:100B0000B1012F08AD0700300318310FB0072D08D1
:100B1000FE003008FF0001308A31DC2285312000E0
:100B2000CF012400141C972D11082000D0002000B4
:100B3000C40A0319C50A082F20004508803E803EDC
:100B4000031D0232023044020318002E2000440824
:100B5000423E2000AD000030AE00200045080318E2
:100B6000450A0319B52D2000AE0720002D0884008A
:100B70002E08850024001108800020004408013A56
:100B8000031D002E4508003A031D002E20004208D8
:100B90002000AD00B000AE00AF01AD012000430861
:100BA0002000AE00AF00B1012F08AD0700300318E0
:100BB000310FB0072D08FE003008FF0000308A31E9
:100BC000FB228531200042082000AD00B000AE00BD
:100BD000AF01AD01200043082000AE00B100B2011A
:100BE0003108AD0700300318320FB0072D08FE00A2
:100BF0003008FF0000308A31DC2285312000CF012F
:100C00002400141C062E11082000D0002000C40A65
:100C10000319C50A082F20004508803E803E031DA9
:100C200002320230440203186F2E20004408423E74
:100C30002000AD000030AE00200045080318450A32
:100C40000319242E2000AE0720002D0884002E0852
:100C5000850024001108800020004408013A031D8B
:100C60006F2E4508003A031D6F2E20004208200019
:100C7000AD00B100AE00B001AD012000430820007E
:100C8000AE00B000B2013008AD0700300318320FDB
:100C9000B1072D08FE003108FF0001308A31FB2228
:100CA0008631200042082000AD00B100AE00B00146
:100CB000AD01200043082000AE00B200B3013208AD
:100CC000AD0700300318330FB1072D08FE003108BF
:100CD000FF0001308A31DC2286312000CF01240060
:100CE000141C752E11082000D0002000C40A03191E
:100CF000C50A082F200044084504031DB82E24000F
:100D000011082000C800C90120005408013A031D41
:100D10009D2E20004B08803E803E031D0232013094
:100D20004A02031C9D2E20004808FE004908FF00CF
:100D3000200056088A315C22863120005508013A8D
:100D4000031DB62E20004D08803E803E031D02325A
:100D500001304C02031CB62E20004808FE00490852
:100D6000FF00200057088A31062286312000CF017B
:100D70002400141CBE2E11082000D0002000C40A3C
:100D80000319C50A082F200044084504031DF72E47
:100D9000240011082000C2002000AD0003302D0205
:100DA000031CD62E78302D02031CDD2E2000CF012F
:100DB0002000C40A0319C50A082F20002D3524007D
:100DC0009200200012122300151591012000420804
:100DD0002300930055309600AA3096009514200009
:100DE000121EEF2E1212230015112000CF01240035
:100DF000141CFD2E11082000D0002000C40A031985
:100E0000C50A082F2400141C082F11082000D00048
:100E10002400151609008731F62787318831002014
:100E2000873122000C12F430FF0001308A31B222E7
:100E3000873122000C162000911124001108200097
:100E4000D0002400151614181B2F20008B1720002B
:100E5000C601C7012000931C582F93102000C60A1A
:100E60000319C70A4708803E803E031D0232203026
:100E70004602031C582F0030FE000030FF000030F7
:100E80008931282187312000B40120000C1E4A2F0F
:100E90002000B40A20003408B500013A031D532F86
:100EA00022000C12552F22000C162000C601C7018B
:100EB0002000B40120008B1D5F2F2000B40A200009
:100EC0003408B500013A031D972F00302000540468
:100ED00003197E2F20004B08803E803E031D023206
:100EE00001304A0203187E2F0030FE000030FF0060
:100EF00000308A315C2287312000D401003020008C
:100F000055040319972F20004D08803E803E031D95
:100F1000023201304C020318972F0030FE000030DF
:100F2000FF0000308A31062287312000D5010030D1
:100F300020005304031D2A2F003020005204031DFB
:100F40002A2F2000B40120008C1EA82F2000B40AF4
:100F500020003408B500013A031D2A2F013020007B
:100F6000D2000030FE000030FF0000308A315C22E9
:100F700087310030FE000030FF0000308A31062249
:100F800087312000D4012000D5012A2F0800003A23
:100F90000319CF2F803A0319D72FFF0100347E08A1
:100FA00084007F0885001200FF00000808008731D8
:100FB000F127FD00FE0FFF03FF0A8731F127FC0038
:100FC0007D08FF007C080800003A0319EB2F803AE7
:100FD0000319F12F00347E0884007F088500000883
:100FE00008007F088A007E08820008002100190896
:100FF000FC399900873970389900080000340034B2
:1010000023008C018E0121000C148C140C150C1281
:101010008C168E140E148E110E118E120E122000CC
:101020000C128E110E118E120E1224001508F039BA
:101030000638950015161513951394131413961767
:1010400016141717971217129715171197101710D4
:10105000FE30930088309200951625001308F03971
:1010600093001A08F0399A0026001308F03993000B
:101070001A08F0399A0021008E168E153F30200094
:101080009B00250013083F3993001A083F399A0046
:101090001308F0390C3893001A08F0390C389A000C
:1010A00091011308CF39930098011A08CF399A009B
:1010B0001E08FC399E00F3399E0020001C08873969
:1010C0009C00FC3902389C001C1591102000911CDA
:1010D000662821008E128E113F30280096001708D6
:1010E00003389700783897001711200093102700D5
:1010F0009C131C1322009A139A111A119113911226
:101100009313931223009D1320000B1721009115B8
:10111000200091118B112700920112149214910159
:101120001114911420000B10230091019513151335
:10113000151413082000A10003302102031CA72866
:10114000783021020318A7282135240092000800D6
:101150009E30FE008930FF0080308731C7278831FC
:101160002000B7007F08B600A030B8008930B90071
:1011700020003608BA003708BB00FF30B607031C52
:10118000B7033A083B040319252904303807BA008D
:10119000BB01BB0D3908BB073A08FE003B08FF0046
:1011A00080308731C72788312000BD007F08BC0010
:1011B0003808FE003908FF0080308731C7278831A2
:1011C0002000BF00BB007F08BE00BA000230380715
:1011D000BA00BB01BB0D3908BB073A08FE003B084B
:1011E000FF0080308731C72788312000BB00C10055
:1011F0007F08BA00C00020003C08C0003D08C100C4
:10120000FF30BC07031CBD034008410403191F291C
:101210003E08FE003F08FF0080308731E427893117
:101220002000C0003A0884003B0885004008800088
:10123000BE0A0319BF0ABA0A0319BB0AFB28063003
:101240002000B8070318B90AB82887310B2F080007
:101250002000A1007F08A0007E08A2002000520804
:10126000013A031D3C29003020005304031D3C2992
:101270002000A101A201A00120002008803E7F3EA5
:10128000031D023200302202031C4A29FF302000D5
:10129000A200A00120002108013A031D63290130AA
:1012A0002000D60001302000D7002000A20903143E
:1012B0002008031C200A003CA000143020000E046B
:1012C00022008E006C292000D6012000D701EB30CF
:1012D00020000E0522008E00200091102000911C9D
:1012E0006E2920002037A300220CA100A337A10CF7
:1012F00025009800200021082500910003302000DF
:10130000A205A0010339A500A50EF030A505250012
:101310001A08CF392000250425009A002000220851
:10132000A1000339A500A50EF030A505250013087E
:10133000CF39200025042500930008001134003423
:10134000033400344E340034013400343D340B3463
:101350004F34003401340034FE3407344234003456
:101360000234003433340B34443400340234003457
:101370003E340B3450340034013400343F340B34E9
:10138000513400340134003440340B3452340034CE
:101390000134003441340B3453340034013400340C
:1013A00035340B34463400340234003442340B34C8
:1013B000543400340134003443340B345534003495
:1013C0000134003444340B345634003401340034D6
:1013D00045340B34573400340134003437340B3483
:1013E000483400340234003439340B344A34003485
:1013F000023400343B340B344C34003402340034B7
:1014000046340B3458340034013400342000A10039
:101410007F08A0007E08A20020005208013A031DA8
:101420001A2A003020005304031D1A2A2000A101AB
:10143000A201A00120002008803E7F3E031D023251
:1014400000302202031C282AFF302000A200A00145
:1014500020002108013A031D3B2A01302000D7005B
:101460002000A20903142008031C200A003CA0004D
:1014700022000E163F2A2000D70122000E12200063
:101480002037A300220CA100A337A10C21082500BE
:10149000910003302000A205A0012208A100033919
:1014A000A400A40EF030A40525001308CF392000B5
:1014B00024042500930008002000A1007F08A0005C
:1014C0007E08A20020005208013A031D702A003055
:1014D00020005304031D702A2000A101A201A001D5
:1014E00020002008803E7F3E031D02320030220291
:1014F000031C7E2AFF302000A200A001200021084A
:10150000013A031D912A01302000D6002000A209D3
:1015100003142008031C200A003CA00022000E1522
:10152000952A2000D60122000E1120002037A300AA
:10153000220CA100A337A10C21082500980003303C
:101540002000A205A0012208A1000339A400A40ED6
:10155000F030A40525001A08CF3920002404250006
:101560009A0008002000A1007F08A00020002008A9
:10157000A2002108A300FF30A007031CA10322083A
:1015800023040319DB2A9030A2000130A3000000DD
:10159000FF3020002207A400FF30A5002308031815
:1015A000230FA5072408A2002508A300240825046A
:1015B000031DC72AB62A08002000AA007F08AC0035
:1015C0007E08AB0020008B1DFA2A20002B0820008B
:1015D000CC0020002C082000CD0020004808FE0090
:1015E0004908FF0020002A088A3106228A3101308A
:1015F0002000D50008002000A7007F08A9007E0871
:10160000A80020008B1D192B200028082000CA00EC
:10161000200029082000CB0020004808FE004908CF
:10162000FF00200027088A315C228B310130200026
:10163000D40008002000A6002000D4012000D5011D
:101640000030FE000030FF000030893128218B314E
:1016500020002608013A031D302B20008B15322B69
:1016600020008B1108000034003400340034FF34B3
:1016700000340034003400340034003400340034CA
:0E1680000034003400340034003400340034F0
:020000040001F9
:02000E00C42FFD
:02001000FF1FD0
:00000001FF
