:020000040000FA
:1000000000008731712F00348A012000911DBB2E22
:10001000911124001512141E3E28003020005004B7
:10002000031D14282000CE012000C301C4012000BC
:100030004308413E2000AC000030AD0020004408E1
:100040000318440A031926282000AD0720002C08B5
:1000500084002D088500003080002000C30A0319A9
:10006000C40A4408803E803E031D0232023043022F
:10007000031C17282000C301C401B92E2400941AC0
:10008000A728141DA02820004E08023A0319712841
:100090004E08053A031975284E08083A03197928BD
:1000A0004E080B3A03197D284E080D3A0319812892
:1000B0004E080E3A031985284E08123A031989286A
:1000C0004E08143A03198D284E081B3A031991283B
:1000D0004E081D3A031995284E08993A0319992894
:1000E0009D28023024009100B92E05302400910093
:1000F000B92E083024009100B92E0B302400910055
:10010000B92E0D3024009100B92E0E30240091003C
:10011000B92E123024009100B92E14302400910021
:10012000B92E1B3024009100B92E1D3024009100FF
:10013000B92E993024009100B92E24009101B92ED6
:10014000240011082000CD0024001516B92E24002B
:10015000141D102A20004E08023A0319D8284E0810
:10016000053A0319F0284E08083A03193E294E08AB
:100170000B3A03198C294E080D3A03199C294E0895
:100180000E3A0319AC294E08123A0319C4294E0835
:10019000143A0319D2294E081B3A0319E2294E08D2
:1001A0001D3A0319F7294E08993A0319002A082A1B
:1001B0002000AC0120000C1EDF282000AC0A20002B
:1001C0002C08AD00013A031DE82824009101EB281A
:1001D0000130240091002000CE012000D001B92E72
:1001E000200043084404031D042920000E19FC28A4
:1001F000013024009100FF280230240091002000EB
:10020000C30A0319C40AB92E20000E191E2925009D
:1002100018352000AC00AC35AD0125001A08303986
:100220002000AD00AD0E0F30AD052C08AE002D083E
:10023000AC002E04AD0024009100362925001835AD
:100240002000AC00AC35AD0125001A083039200083
:10025000AD00AD0E0F30AD052C08AE002D08AC0082
:100260002E04AD00AC002C09240091002000CE012A
:100270002000D0012000C301C401B92E2000430892
:100280004404031D522920000E1A4A29013024007B
:1002900091004D290230240091002000C30A031967
:1002A000C40AB92E20000E1A6C2925001135200031
:1002B000AC00AC35AD012500130830392000AD008D
:1002C000AD0E0F30AD052C08AE002D08AC002E048D
:1002D000AD00240091008429250011352000AC00D8
:1002E000AC35AD012500130830392000AD00AD0E4E
:1002F0000F30AD052C08AE002D08AC002E04AD006B
:10030000AC002C09240091002000CE012000D00177
:100310002000C301C401B92E00302000510403198C
:100320009529013024009100972924009101200093
:10033000CE012000D001B92E003020005204031954
:10034000A529013024009100A72924009101200053
:10035000CE012000D001B92E2000AC0120000C1DE0
:10036000B3292000AC0A20002C08AD00013A031D7F
:10037000BC2924009101BF290130240091002000F4
:10038000CE012000D001B92E28001719CA29240057
:100390009101CD290130240091002000CE012000E0
:1003A000D001B92E0030200053040319DB2901309D
:1003B00024009100DD29240091012000CE012000BD
:1003C000D001B92E003020005404031DEC29003068
:1003D000200055040319F029013024009100F2296E
:1003E000240091012000CE012000D001B92E200070
:1003F0004708240091002000CE012000D001B92E32
:100400001530240091002000CE012000D001B92E2B
:10041000240091012000D0012000C301C401B92EA5
:10042000003020004E04031D4C2A24001108200037
:10043000CE004E08023A0319452A4E08053A031920
:10044000452A4E08083A0319452A4E080B3A031963
:10045000452A4E080D3A0319452A4E080E3A03194B
:10046000452A4E08123A0319452A4E08143A031930
:10047000452A4E081B3A0319452A4E081D3A03190E
:10048000452A4E08993A031D492A01302000D00020
:10049000B92E2000D001B92E20004408803E803EB5
:1004A000031D023203304302031C5A2A023020008B
:1004B000C300C40120004E08013A0319AC2A4E08BB
:1004C000033A0319CC2A4E08043A0319EE2A4E08BF
:1004D000063A0319102B4E08073A0319322B4E081F
:1004E000093A0319542B4E080A3A0319742B4E0883
:1004F0000C3A0319882B4E080F3A0319A92B4E0802
:10050000103A0319CB2B4E08113A0319ED2B4E0864
:10051000133A03190F2C4E08153A0319332C4E08C1
:10052000163A0319862C4E08173A0319D92C4E088F
:10053000183A03192C2D4E08193A03197F2D4E082D
:100540001A3A0319EE2D4E081C3A03195D2E4E0877
:10055000AA3A0319742EB32E200043084404031D45
:10056000C12A240011082000C1002000AC002C0882
:10057000031DBD2A22000C16BF2A22000C122000E7
:10058000CE012400141CC72A11082000CF0020002F
:10059000C30A0319C40AB92E200043084404031DEA
:1005A000E32A240011082000C1002000AC00AD00A7
:1005B000AE012D08FE000030FF0000308931C5215A
:1005C00082312000CE012400141CE92A11082000E9
:1005D000CF002000C30A0319C40AB92E2000430823
:1005E0004404031D052B240011082000C100200035
:1005F000AC00AD00AE012D08FE000030FF00013060
:100600008931C52183312000CE012400141C0B2B1D
:1006100011082000CF002000C30A0319C40AB92E14
:10062000200043084404031D272B24001108200048
:10063000C1002000AC00AD00AE012D08FE0000306E
:10064000FF0000308931752183312000CE01240064
:10065000141C2D2B11082000CF002000C30A031901
:10066000C40AB92E200043084404031D492B24006A
:1006700011082000C1002000AC00AD00AE012D0823
:10068000FE000030FF0001308931752183312000E8
:10069000CE012400141C4F2B11082000CF00200095
:1006A000C30A0319C40AB92E200043084404031DD9
:1006B000692B0030FE000030FF0000308831A82098
:1006C000833122000C162000D4012000D501200027
:1006D000CE012400141C6F2B11082000CF00200035
:1006E000C30A0319C40AB92E200043084404031D99
:1006F0007D2B2000D1012000CE012400141C832B6F
:1007000011082000CF002000C30A0319C40AB92E23
:10071000200043084404031D9E2B240011082000E0
:10072000C1002000AC002C08031D992B2000D20131
:100730009C2B01302000D2002000CE012400141C8C
:10074000A42B11082000CF002000C30A0319C40AFB
:10075000B92E200043084404031DC02B24001108B7
:100760002000C1002000AC00AD00AE012D08FE004D
:100770000030FF0000308831A82083312000CE01F6
:100780002400141CC62B11082000CF002000C30A2F
:100790000319C40AB92E200043084404031DE22BA8
:1007A000240011082000C1002000AC00AD00AE0103
:1007B0002D08FE000030FF0001308831A820833171
:1007C0002000CE012400141CE82B11082000CF00CB
:1007D0002000C30A0319C40AB92E200043084404A8
:1007E000031D042C240011082000C1002000AC00CF
:1007F0002C08031DFE2B28001711002C28001715AC
:10080000200093102000CE012400141C0A2C110893
:100810002000CF002000C30A0319C40AB92E20000B
:1008200043084404031D282C240011082000C100A3
:100830002000AC002C08031D222C00308A31B0228D
:100840008431262C01308A31B02284312000CE013F
:100850002400141C2E2C11082000CF002000C30AF5
:100860000319C40AB92E20004408803E803E031DAF
:1008700002320230430203187B2C20004308413E21
:100880002000AC000030AD00200044080318440AEA
:1008900003194C2C2000AD0720002C0884002D08E3
:1008A000850024001108800020004308013A031D40
:1008B0007B2C4408003A031D7B2C200041082000BB
:1008C000AC00AF00AD00AE01AC012000420820003A
:1008D000AD00AE00B0012E08AC0700300318300F99
:1008E000AF072C08FE002F08FF0000308A318F224E
:1008F00084312000CE012400141C812C110820001A
:10090000CF002000C30A0319C40AB92E20004408EE
:10091000803E803E031D0232023043020318CE2C7B
:1009200020004308413E2000AC000030AD00200014
:1009300044080318440A03199F2C2000AD07200027
:100940002C0884002D088500240011088000200058
:100950004308013A031DCE2C4408003A031DCE2C57
:10096000200041082000AC00AF00AD00AE01AC019A
:10097000200042082000AD00AE00B0012E08AC07F8
:1009800000300318300FAF072C08FE002F08FF00BF
:1009900001308A318F2284312000CE012400141CC2
:1009A000D42C11082000CF002000C30A0319C40A68
:1009B000B92E20004408803E803E031D02320230E2
:1009C00043020318212D20004308413E2000AC00C3
:1009D0000030AD00200044080318440A0319F22C2B
:1009E0002000AD0720002C0884002D08850024007D
:1009F0001108800020004308013A031D212D4408FE
:100A0000003A031D212D200041082000AC00AF005A
:100A1000AD00AE01AC01200042082000AD00AE00E8
:100A2000B0012E08AC0700300318300FAF072C08B8
:100A3000FE002F08FF0000308A316E228531200031
:100A4000CE012400141C272D11082000CF00200007
:100A5000C30A0319C40AB92E20004408803E803E10
:100A6000031D0232023043020318742D2000430894
:100A7000413E2000AC000030AD00200044080318C7
:100A8000440A0319452D2000AD0720002C088400DE
:100A90002D08850024001108800020004308013A39
:100AA000031D742D4408003A031D742D20004108D5
:100AB0002000AC00AF00AD00AE01AC012000420848
:100AC0002000AD00AE00B0012E08AC0700300318C6
:100AD000300FAF072C08FE002F08FF0001308A31CD
:100AE0006E2285312000CE012400141C7A2D1108BD
:100AF0002000CF002000C30A0319C40AB92E200029
:100B00004408803E803E031D023202304302031837
:100B1000E32D20004308413E2000AC000030AD0032
:100B2000200044080318440A0319982D2000AD073B
:100B300020002C0884002D08850024001108800066
:100B400020004308013A031DE32D4408003A031D29
:100B5000E32D200041082000AC00AF00AD00AE0145
:100B6000AC01200042082000AD00AE00B0012E080C
:100B7000AC0700300318300FAF072C08FE002F0819
:100B8000FF0000308A318F2285312000410820008B
:100B9000AC00AF00AD00AE01AC0120004208200067
:100BA000AD00B000B1013008AC0700300318310FC0
:100BB000AF072C08FE002F08FF0000308A316E229C
:100BC00085312000CE012400141CE92D11082000DD
:100BD000CF002000C30A0319C40AB92E200044081C
:100BE000803E803E031D0232023043020318522E23
:100BF00020004308413E2000AC000030AD00200042
:100C000044080318440A0319072E2000AD072000EA
:100C10002C0884002D088500240011088000200085
:100C20004308013A031D522E4408003A031D522E78
:100C3000200041082000AC00B000AD00AF01AC01C5
:100C4000200042082000AD00AF00B1012F08AC0722
:100C500000300318310FB0072C08FE003008FF00E9
:100C600001308A318F228631200041082000AC00FB
:100C7000B000AD00AF01AC01200042082000AD0083
:100C8000B100B2013108AC0700300318320FB007D1
:100C90002C08FE003008FF0001308A316E228631B8
:100CA0002000CE012400141C582E11082000CF0073
:100CB0002000C30A0319C40AB92E200043084404C3
:100CC000031D692E240011082000C700C801200060
:100CD000CE012400141C6F2E11082000CF0020002C
:100CE000C30A0319C40AB92E200043084404031D93
:100CF000A82E240011082000C1002000AC00033001
:100D00002C02031C872E78302C02031C8E2E200010
:100D1000CE012000C30A0319C40AB92E20002C35C5
:100D200024009200200012122300151591012000CA
:100D300041082300930055309600AA309600951480
:100D40002000121EA02E1212230015112000CE0129
:100D50002400141CAE2E11082000CF002000C30A6E
:100D60000319C40AB92E2400141CB92E110820003E
:100D7000CF002400151609008731F127863188310C
:100D80000020863122000C12F430FF0001308A313D
:100D90004422863122000C162000911124001108F3
:100DA0002000CF00240015161418CC2E20008B171D
:100DB0002000C501C6012000931C092F93102000BC
:100DC000C50A0319C60A4608803E803E031D02324A
:100DD00020304502031C092F0030FE000030FF00C8
:100DE00000308831A82086312000B30120000C1E7D
:100DF000FB2E2000B30A20003308B400013A031D83
:100E0000042F22000C12062F22000C162000C50110
:100E1000C6010030200053040319402F0030200089
:100E200054040319272F20004A08803E803E031DEA
:100E30000232013049020318272F0030FE00003033
:100E4000FF0000308931C52187312000D4010030F6
:100E5000200055040319402F20004C08803E803E9E
:100E6000031D023201304B020318402F0030FE00F8
:100E70000030FF0000308931752187312000D50115
:100E8000003020005204031D6E2F0030200051045A
:100E9000031D6E2F2000B30120008C1E512F200057
:100EA000B30A20003308B400013A031D6E2F01304D
:100EB0002000D1000030FE000030FF0000308931FA
:100EC000C52187310030FE000030FF00003089313D
:100ED000752187312000D4012000D5016400DB2E6C
:100EE00008001330FE008930FF0080308A3115225F
:100EF00087312000B6007F08B5001530B700893073
:100F0000B80020003508B9003608BA00FF30B50730
:100F1000031CB60339083A040319EE2F04303707CF
:100F2000B900BA01BA0D3808BA073908FE003A0804
:100F3000FF0080308A31152287312000BC007F08F5
:100F4000BB003708FE003808FF0080308A311522C8
:100F500087312000BE00BA007F08BD00B900023012
:100F60003707B900BA01BA0D3808BA073908FE00C8
:100F70003A08FF0080308A31152287312000BA00FC
:100F8000C0007F08B900BF0020003B08BF003C083C
:100F9000C000FF30BB07031CBC033F08400403191B
:100FA000E82F3D08FE003E08FF0080308A313222E3
:100FB00087312000BF00390884003A0885003F08C7
:100FC0008000BD0A0319BE0AB90A0319BA0AC42F60
:100FD00006302000B7070318B80A812F8631BC2ECF
:100FE000080021001908FC399900873970389900E8
:100FF00099171808C0391F389800080000340034C9
:1010000023008C018E0121000C148C140C150C1281
:101010008C168E140E148E110E118E120E122000CC
:101020000C128E110E118E120E1224001508F039BA
:101030000638950015161513951394131413961767
:1010400016141717971217129715171197101710D4
:10105000FE30930088309200951625001308F03971
:1010600093001A08F0399A0026001308F03993000B
:101070001A08F0399A0021008E168E153F30200094
:101080009B00250013083F3993001A083F399A0046
:101090001308F0390C3893001A08F0390C389A000C
:1010A00091011308CF39930098011A08CF399A009B
:1010B0001E08FC399E00F3399E0020001C08873969
:1010C0009C00FC3902389C001C1591102000911CDA
:1010D000662821008E128E113F30280096001708D6
:1010E00003389700783897001711200093102700D5
:1010F0009C131C1322009A139A111A119113911226
:101100009313931223009D1320000B1721009115B8
:10111000200091118B112700920112149214910159
:101120001114911420000B10230091019513151335
:10113000151413082000A10003302102031CA72866
:10114000783021020318A7282135240092000800D6
:101150002000A1007F08A0007E08A200003020002F
:1011600051040319BC28003020005204031DBC2880
:101170002000A101A201A00120002008803E7F3EA6
:10118000031D023200302202031CCA28FF30200057
:10119000A200A0010030200021040319DC28A209CC
:1011A00003142008031C200A003CA0001430200077
:1011B0000E0422008E00E128EB3020000E052200F4
:1011C0008E00200091102000911CE3282000203781
:1011D000A300220CA100A337A10C25009800200039
:1011E00021082500910003302000A205A001033949
:1011F000A500A50EF030A50525001A08CF3920005E
:10120000250425009A0020002208A1000339A5002A
:10121000A50EF030A50525001308CF3920002504C0
:1012200025009300080010340034033400344D349A
:10123000003401340034D4340A344E3400340134E0
:101240000034FE3407344134003402340034D534E1
:101250000A344F34003401340034CA340A3443347D
:10126000003402340034D6340A34503400340134AB
:101270000034D7340A345134003401340034D834C3
:101280000A345234003401340034CC340A34453446
:10129000003402340034D9340A3453340034013475
:1012A0000034DA340A345434003401340034DB348A
:1012B0000A345534003401340034CE340A3447340F
:1012C000003402340034D0340A3449340034023457
:1012D0000034D2340A344B34003402340034DC3469
:1012E0000A3456340034013400342000A1007F0851
:1012F000A0007E08A20000302000510403198929B3
:10130000003020005204031D89292000A101A20100
:10131000A00120002008803E7F3E031D02320030E5
:101320002202031C9729FF302000A200A0010030F8
:10133000200021040319A629A20903142008031C74
:10134000200A003CA00022000E16A82922000E123E
:1013500020002037A300220CA100A337A10C2108F4
:101360002500910003302000A205A0012208A10061
:101370000339A400A40EF030A40525001308CF39CA
:10138000200024042500930008002000A1007F080D
:10139000A0007E08A2000030200051040319D929C2
:1013A000003020005204031DD9292000A101A20110
:1013B000A00120002008803E7F3E031D0232003045
:1013C0002202031CE729FF302000A200A001003008
:1013D000200021040319F629A20903142008031C84
:1013E000200A003CA00022000E15F82922000E1150
:1013F00020002037A300220CA100A337A10C210854
:101400002500980003302000A205A0012208A100B9
:101410000339A400A40EF030A40525001A08CF3922
:101420002000240425009A000800003A03191D2A10
:10143000803A0319252AFF0100347E0884007F08C2
:1014400085001200FF00000808008A313F22FD00DD
:10145000FE0FFF03FF0A8A313F22FC007D08FF00D8
:101460007C080800003A0319392A803A03193F2AF8
:1014700000347E0884007F088500000808007F088B
:101480008A007E08820008002000A1007F08A000DA
:1014900020002008A2002108A300FF30A007031CA1
:1014A000A1032208230403196D2A7630A200043018
:1014B000A3000000FF3020002207A400FF30A50099
:1014C00023080318230FA5072408A2002508A3005A
:1014D00024082504031D592A482A08002000A900D1
:1014E0007F08AB007E08AA000030200053040319D7
:1014F0008E2A20002A082000CB0020002B08200084
:10150000CC0020004708FE004808FF002000290802
:10151000893175218A3101302000D5000800200072
:10152000A6007F08A8007E08A70000302000530412
:101530000319AF2A200027082000C900200028082E
:101540002000CA0020004708FE004808FF002000D5
:1015500026088931C5218A3101302000D4000800D5
:101560002000D300D3012000D4012000D501003099
:10157000FE000030FF0000308831A8208A310030A2
:10158000200053040319C72A20008B15C92A200004
:101590008B1108000034003400340034FF34003470
:1015A000003400340034003400340034003400349B
:0A15B000003400340034003400342D
:020000040001F9
:02000E00C42FFD
:02001000FF1FD0
:00000001FF
