:020000040000FA
:1000000000008831A82800348A012000911DB92EF3
:10001000911124001512141E3E28003020005004B7
:10002000031D14282000CE012000C301C4012000BC
:100030004308413E2000AC000030AD0020004408E1
:100040000318440A031926282000AD0720002C08B5
:1000500084002D088500003080002000C30A0319A9
:10006000C40A4408803E803E031D0232023043022F
:10007000031C17282000C301C401B72E2400941AC2
:10008000A528141DA02820004E08023A0319712843
:100090004E08053A031975284E08083A03197928BD
:1000A0004E080B3A03197D284E080D3A0319812892
:1000B0004E080E3A031985284E08123A031989286A
:1000C0004E08143A03198D284E081B3A031991283B
:1000D0004E081D3A031995284E08993A0319992894
:1000E0009D28023024009100B72E05302400910095
:1000F000B72E083024009100B72E0B302400910059
:10010000B72E0D3024009100B72E0E302400910040
:10011000B72E123024009100B72E14302400910025
:10012000B72E1B3024009100B72E1D302400910003
:10013000B72E993024009100B72E24009101B72EDC
:10014000240011082000CD00B72E2400141D0E2A13
:1001500020004E08023A0319D6284E08053A031922
:10016000EE284E08083A03193C294E080B3A0319A9
:100170008A294E080D3A03199A294E080E3A031996
:10018000AA294E08123A0319C2294E08143A031933
:10019000D0294E081B3A0319E0294E081D3A0319CD
:1001A000F5294E08993A0319FE29062A2000AC01C8
:1001B00020000C1EDD282000AC0A20002C08AD0019
:1001C000013A031DE62824009101E92801302400AA
:1001D00091002000CE012000D001B72E200043085E
:1001E0004404031D022920000E19FA2801302400BE
:1001F0009100FD280230240091002000C30A031959
:10020000C40AB72E20000E191C292500183520001D
:10021000AC00AC35AD0125001A0830392000AD0026
:10022000AD0E0F30AD052C08AE002D08AC002E042D
:10023000AD00240091003429250018352000AC00C1
:10024000AC35AD0125001A0830392000AD00AD0EE7
:100250000F30AD052C08AE002D08AC002E04AD000B
:10026000AC002C09240091002000CE012000D00118
:100270002000C301C401B72E200043084404031D1D
:10028000502920000E1A48290130240091004B29E2
:100290000230240091002000C30A0319C40AB72EBB
:1002A00020000E1A6A29250011352000AC00AC355B
:1002B000AD012500130830392000AD00AD0E0F3020
:1002C000AD052C08AE002D08AC002E04AD002400B6
:1002D00091008229250011352000AC00AC35AD011C
:1002E0002500130830392000AD00AD0E0F30AD05EC
:1002F0002C08AE002D08AC002E04AD00AC002C097B
:10030000240091002000CE012000D0012000C30174
:10031000C401B72E00302000510403199329013085
:10032000240091009529240091012000CE01200095
:10033000D001B72E0030200052040319A329013048
:1003400024009100A529240091012000CE01200065
:10035000D001B72E2000AC0120000C1DB1292000D7
:10036000AC0A20002C08AD00013A031DBA29240074
:100370009101BD290130240091002000CE01200010
:10038000D001B72E28001719C82924009101CB29C4
:100390000130240091002000CE012000D001B72EB2
:1003A0000030200053040319D929013024009100A2
:1003B000DB29240091012000CE012000D001B72EBE
:1003C000003020005404031DEA29003020005504A9
:1003D0000319EE29013024009100F0292400910135
:1003E0002000CE012000D001B72E200047082400B5
:1003F00091002000CE012000D001B72E153024003E
:1004000091002000CE012000D001B72E24009101E0
:100410002000D0012000C301C401B72E003020000D
:100420004E04031D4A2A240011082000CE004E0865
:10043000023A0319432A4E08053A0319432A4E0883
:10044000083A0319432A4E080B3A0319432A4E0867
:100450000D3A0319432A4E080E3A0319432A4E084F
:10046000123A0319432A4E08143A0319432A4E0834
:100470001B3A0319432A4E081D3A0319432A4E0812
:10048000993A031D472A01302000D000B72E2000E2
:10049000D001B72E20004408803E803E031D02326A
:1004A00003304302031C582A02302000C300C40159
:1004B00020004E08013A0319AA2A4E08033A0319EC
:1004C000CA2A4E08043A0319EC2A4E08063A0319C0
:1004D0000E2B4E08073A0319302B4E08093A031920
:1004E000522B4E080A3A0319722B4E080C3A031984
:1004F000862B4E080F3A0319A72B4E08103A031902
:10050000C92B4E08113A0319EB2B4E08133A031965
:100510000D2C4E08153A0319312C4E08163A0319C2
:10052000842C4E08173A0319D72C4E08183A031991
:100530002A2D4E08193A03197D2D4E081A3A03192F
:10054000EC2D4E081C3A03195B2E4E08AA3A0319EB
:10055000722EB12E200043084404031DBF2A24003C
:1005600011082000C1002000AC002C08031DBB2A8C
:1005700022000C16BD2A22000C122000CE012400FD
:10058000141CC52A11082000CF002000C30A03193B
:10059000C40AB72E200043084404031DE12A2400A6
:1005A00011082000C1002000AC00AD00AE012D08F4
:1005B000FE000030FF0000308931DA218231200056
:1005C000CE012400141CE72A11082000CF002000CF
:1005D000C30A0319C40AB72E200043084404031DAC
:1005E000032B240011082000C1002000AC00AD0046
:1005F000AE012D08FE000030FF0001308931DA2104
:1006000083312000CE012400141C092B1108200086
:10061000CF002000C30A0319C40AB72E20004308E4
:100620004404031D252B240011082000C1002000D4
:10063000AC00AD00AE012D08FE000030FF00003020
:1006400089318A2183312000CE012400141C2B2BF8
:1006500011082000CF002000C30A0319C40AB72ED6
:10066000200043084404031D472B240011082000E8
:10067000C1002000AC00AD00AE012D08FE0000302E
:10068000FF00013089318A2183312000CE0124000E
:10069000141C4D2B11082000CF002000C30A0319A1
:1006A000C40AB72E200043084404031D672B003002
:1006B000FE000030FF0000308731852783312200A3
:1006C0000C162000D4012000D5012000CE0124000A
:1006D000141C6D2B11082000CF002000C30A031941
:1006E000C40AB72E200043084404031D7B2B2000BE
:1006F000D1012000CE012400141C812B1108200000
:10070000CF002000C30A0319C40AB72E20004308F3
:100710004404031D9C2B240011082000C10020006C
:10072000AC002C08031D972B2000D2019A2B01301E
:100730002000D2002000CE012400141CA22B11089E
:100740002000CF002000C30A0319C40AB72E2000DE
:1007500043084404031DBE2B240011082000C100DF
:100760002000AC00AD00AE012D08FE000030FF00FF
:1007700000308731852783312000CE012400141CEE
:10078000C42B11082000CF002000C30A0319C40A9B
:10079000B72E200043084404031DE02B2400110859
:1007A0002000C1002000AC00AD00AE012D08FE000D
:1007B0000030FF0001308731852783312000CE01D2
:1007C0002400141CE62B11082000CF002000C30ACF
:1007D0000319C40AB72E200043084404031D022C49
:1007E000240011082000C1002000AC002C08031DCB
:1007F000FC2B28001711FE2B280017152000931042
:100800002000CE012400141C082C11082000CF0069
:100810002000C30A0319C40AB72E20004308440469
:10082000031D262C240011082000C1002000AC006C
:100830002C08031D202C00308A31C5228431242C41
:1008400001308A31C52284312000CE012400141CDD
:100850002C2C11082000CF002000C30A0319C40A61
:10086000B72E20004408803E803E031D0232023035
:1008700043020318792C20004308413E2000AC00BD
:100880000030AD00200044080318440A03194A2C24
:100890002000AD0720002C0884002D0885002400CE
:1008A0001108800020004308013A031D792C4408F8
:1008B000003A031D792C200041082000AC00AF0055
:1008C000AD00AE01AC01200042082000AD00AE003A
:1008D000B0012E08AC0700300318300FAF072C080A
:1008E000FE002F08FF0000308A31A422843120004E
:1008F000CE012400141C7F2C11082000CF00200002
:10090000C30A0319C40AB72E20004408803E803E63
:10091000031D0232023043020318CC2C200043088E
:10092000413E2000AC000030AD0020004408031818
:10093000440A03199D2C2000AD0720002C088400D8
:100940002D08850024001108800020004308013A8A
:10095000031DCC2C4408003A031DCC2C2000410878
:100960002000AC00AF00AD00AE01AC012000420899
:100970002000AD00AE00B0012E08AC070030031817
:10098000300FAF072C08FE002F08FF0001308A311E
:10099000A42284312000CE012400141CD22C110882
:1009A0002000CF002000C30A0319C40AB72E20007C
:1009B0004408803E803E031D023202304302031889
:1009C0001F2D20004308413E2000AC000030AD0048
:1009D000200044080318440A0319F02C2000AD0736
:1009E00020002C0884002D088500240011088000B8
:1009F00020004308013A031D1F2D4408003A031D3F
:100A00001F2D200041082000AC00AF00AD00AE015A
:100A1000AC01200042082000AD00AE00B0012E085D
:100A2000AC0700300318300FAF072C08FE002F086A
:100A3000FF0000308A31832285312000CE0124005E
:100A4000141C252D11082000CF002000C30A031913
:100A5000C40AB72E20004408803E803E031D0232A7
:100A6000023043020318722D20004308413E20004B
:100A7000AC000030AD00200044080318440A0319FC
:100A8000432D2000AD0720002C0884002D08850090
:100A900024001108800020004308013A031D722D34
:100AA0004408003A031D722D200041082000AC00CC
:100AB000AF00AD00AE01AC01200042082000AD0047
:100AC000AE00B0012E08AC0700300318300FAF079E
:100AD0002C08FE002F08FF0001308A318322853167
:100AE0002000CE012400141C782D11082000CF0016
:100AF0002000C30A0319C40AB72E20004408803E10
:100B0000803E031D0232023043020318E12D200013
:100B10004308413E2000AC000030AD0020004408F6
:100B20000318440A0319962D2000AD0720002C0855
:100B300084002D088500240011088000200043084F
:100B4000013A031DE12D4408003A031DE12D200068
:100B500041082000AC00AF00AD00AE01AC012000A8
:100B600042082000AD00AE00B0012E08AC070030F6
:100B70000318300FAF072C08FE002F08FF000030CD
:100B80008A31A4228531200041082000AC00AF004A
:100B9000AD00AE01AC01200042082000AD00B00065
:100BA000B1013008AC0700300318310FAF072C0833
:100BB000FE002F08FF0000308A318322853120009B
:100BC000CE012400141CE72D11082000CF002000C6
:100BD000C30A0319C40AB72E20004408803E803E91
:100BE000031D0232023043020318502E2000430836
:100BF000413E2000AC000030AD0020004408031846
:100C0000440A0319052E2000AD0720002C0884009B
:100C10002D08850024001108800020004308013AB7
:100C2000031D502E4408003A031D502E2000410899
:100C30002000AC00B000AD00AF01AC0120004208C4
:100C40002000AD00AF00B1012F08AC070030031841
:100C5000310FB0072C08FE003008FF0001308A3148
:100C6000A4228631200041082000AC00B000AD0075
:100C7000AF01AC01200042082000AD00B100B2017C
:100C80003108AC0700300318320FB0072C08FE0003
:100C90003008FF0001308A31832286312000CE01E6
:100CA0002400141C562E11082000CF002000C30A77
:100CB0000319C40AB72E200043084404031D672EFD
:100CC000240011082000C700C8012000CE01240024
:100CD000141C6D2E11082000CF002000C30A031938
:100CE000C40AB72E200043084404031DA62E240086
:100CF00011082000C1002000AC0003302C02031CAE
:100D0000852E78302C02031C8C2E2000CE01200072
:100D1000C30A0319C40AB72E20002C352400920000
:100D20002000121223001515910120004108230014
:100D3000930055309600AA30960095142000121E9C
:100D40009E2E1212230015112000CE012400141C27
:100D5000AC2E11082000CF002000C30A0319C40ADA
:100D6000B72E2400141CB72E11082000CF00240039
:100D7000151620000B1CCF2E0B102700131CC62E9F
:100D80001310FF302000CB07031CCC032700931C5B
:100D9000CF2E9310FF302000C907031CCA0309009F
:100DA0008731F027863188310020863122000C12ED
:100DB000F430FF0001308A315922863122000C16AE
:100DC00020009111240011082000CF0024001516E6
:100DD0001418E02E20008B172000C501C60120004A
:100DE000931C1D2F93102000C50A0319C60A46083C
:100DF000803E803E031D023220304502031C1D2F21
:100E00000030FE000030FF00003087318527873139
:100E10002000B30120000C1E0F2F2000B30A200079
:100E20003308B400013A031D182F22000C121A2FA8
:100E300022000C162000C501C60120005308013A0B
:100E4000031D542F00302000540403193B2F2000B1
:100E50004A08803E803E031D0232013049020318D9
:100E60003B2F0030FE000030FF0000308931DA21D6
:100E700087312000D4010030200055040319542F7D
:100E800020004C08803E803E031D023201304B02A0
:100E90000318542F0030FE000030FF00003089316D
:100EA0008A2187312000D501003020005204031D23
:100EB000822F003020005104031D822F2000B30137
:100EC00020008C1E652F2000B30A20003308B400D8
:100ED000013A031D822F01302000D1000030FE00B6
:100EE0000030FF0000308931DA2187310030FE0008
:100EF0000030FF00003089318A2187312000D40181
:100F00002000D5016400EF2E08002000A1007F081A
:100F1000A0007E08A20020005108013A031D992F6D
:100F2000003020005204031D992F2000A101A201CE
:100F3000A00120002008803E7F3E031D02320030C9
:100F40002202031CA72FFF302000A200A0012000D6
:100F50002108013A031DB92FA20903142008031C1C
:100F6000200A003CA000143020000E0422008E0055
:100F7000BE2FEB3020000E0522008E0020009110C5
:100F80002000911CC02F20002037A300220CA100BC
:100F9000A337A10C2500980020002108250091000E
:100FA00003302000A205A0010339A500A50EF030F2
:100FB000A50525001A08CF392000250425009A0030
:100FC00020002208A1000339A500A50EF030A505D8
:100FD00025001308CF3920002504250093000800C0
:100FE00021001908FC399900873970389900991740
:100FF0001808C0391F389800080000340034003445
:1010000023008C018E0121000C148C140C150C1281
:101010008C168E140E148E110E118E120E122000CC
:101020000C128E110E118E120E1224001508F039BA
:101030000638950015161513951394131413961767
:1010400016141717971217129715171197101710D4
:10105000FE30930088309200951625001308F03971
:1010600093001A08F0399A0026001308F03993000B
:101070001A08F0399A0021008E168E153F30200094
:101080009B00250013083F3993001A083F399A0046
:101090001308F0390C3893001A08F0390C389A000C
:1010A00091011308CF39930098011A08CF399A009B
:1010B0001E08FC399E00F3399E0020001C08873969
:1010C0009C00FC3902389C001C1591102000911CDA
:1010D000662821008E128E113F30280096001708D6
:1010E00003389700783897001711200093102700D5
:1010F0009C131C1322009A139A111A119113911226
:101100009313931223009D1320000B1721009115B8
:10111000200091118B112700920112149214910159
:101120001114911420000B10230091019513151335
:10113000151413082000A10003302102031CA72866
:10114000783021020318A7282135240092000800D6
:101150002830FE008930FF0080308A312A22883111
:101160002000B6007F08B5002A30B7008930B800EB
:1011700020003508B9003608BA00FF30B507031C57
:10118000B60339083A040319252904303707B90092
:10119000BA01BA0D3808BA073908FE003A08FF004C
:1011A00080308A312A2288312000BC007F08BB00B1
:1011B0003708FE003808FF0080308A312A22883143
:1011C0002000BE00BA007F08BD00B900023037071A
:1011D000B900BA01BA0D3808BA073908FE003A0852
:1011E000FF0080308A312A2288312000BA00C000F6
:1011F0007F08B900BF0020003B08BF003C08C000CA
:10120000FF30BB07031CBC033F08400403191F2920
:101210003D08FE003E08FF0080308A3147228931B8
:101220002000BF00390884003A0885003F0880008C
:10123000BD0A0319BE0AB90A0319BA0AFB28063007
:101240002000B7070318B80AB8288631D02E080046
:1012500010340034033400344D340034013400348D
:10126000FF3407344E34003401340034FD34073485
:101270004134003402340034DF340A34433400345F
:1012800002340034E9340A344F3400340134003479
:10129000EA340A345034003401340034EB340A3474
:1012A0005134003401340034EC340A345234003404
:1012B00001340034E1340A3445340034023400345B
:1012C000ED340A345334003401340034EE340A343B
:1012D0005434003401340034EF340A3455340034CB
:1012E00001340034E3340A34473400340234003427
:1012F000E5340A344934003402340034E7340A3423
:101300004B34003402340034F0340A3456340034A0
:10131000013400342000A1007F08A0007E08A20054
:1013200020005108013A031D9E290030200052047C
:10133000031D9E292000A101A201A0012000200878
:10134000803E7F3E031D023200302202031CAC2986
:10135000FF302000A200A00120002108013A031D57
:10136000BB29A20903142008031C200A003CA0008A
:1013700022000E16BD2922000E1220002037A300E5
:10138000220CA100A337A10C2108250091000330F5
:101390002000A205A0012208A1000339A400A40E88
:1013A000F030A40525001308CF39200024042500BF
:1013B000930008002000A1007F08A0007E08A20082
:1013C00020005108013A031DEE290030200052048C
:1013D000031DEE292000A101A201A0012000200888
:1013E000803E7F3E031D023200302202031CFC2996
:1013F000FF302000A200A00120002108013A031DB7
:101400000B2AA20903142008031C200A003CA00098
:1014100022000E150D2A22000E1120002037A300F5
:10142000220CA100A337A10C21082500980003304D
:101430002000A205A0012208A1000339A400A40EE7
:10144000F030A40525001A08CF3920002404250017
:101450009A000800003A0319322A803A03193A2AFE
:10146000FF0100347E0884007F0885001200FF0021
:10147000000808008A315422FD00FE0FFF03FF0A16
:101480008A315422FC007D08FF007C080800003AE5
:1014900003194E2A803A0319542A00347E08840026
:1014A0007F088500000808007F088A007E08820007
:1014B00008002000A1007F08A00020002008A20052
:1014C0002108A300FF30A007031CA1032208230466
:1014D0000319822A7630A2000430A3000000FF30F6
:1014E00020002207A400FF30A50023080318230FC3
:1014F000A5072408A2002508A30024082504031D2D
:101500006E2A5D2A08002000A9007F08AB007E0833
:10151000AA000030200053040319A32A20002A083F
:101520002000CB0020002B082000CC002000470822
:10153000FE004808FF002000290889318A218A31ED
:1015400001302000D50008002000A6007F08A80078
:101550007E08A7000030200053040319C42A20008D
:1015600027082000C900200028082000CA00200009
:101570004708FE004808FF00200026088931DA21CC
:101580008A3101302000D40008002000D300D301AC
:101590002000D4012000D5010030FE000030FF0003
:1015A0000030873185278A3120005308013A031D16
:1015B000DC2A20008B15DE2A20008B110800003465
:1015C000003400340034FF3400340034003400347C
:1015D000003400340034003400340034003400346B
:0215E0000034D5
:020000040001F9
:02000E00C42FFD
:02001000FF1FD0
:00000001FF
