:020000040000FA
:1000000000008831A82800348A0120000B1C1B281E
:100010000B102700131C12281310FF302000CC07F0
:10002000031CCD032700931C1B289310FF302000D6
:10003000CA07031CCB032000911DD72E9111240069
:100040001512141E5428003020005104031D2A28C4
:100050002000CF012000C401C50120004408423E19
:100060002000AD000030AE00200045080318450A0E
:1000700003193C282000AE0720002D0884002E081C
:100080008500003080002000C40A0319C50A450815
:10009000803E803E031D023202304402031C2D28A4
:1000A0002000C401C501D52E2400941ABB28141DBC
:1000B000B62820004F08023A031987284F08053A4E
:1000C00003198B284F08083A03198F284F080B3A59
:1000D000031993284F080D3A031997284F080E3A31
:1000E00003199B284F08123A03199F284F08143A06
:1000F0000319A3284F081B3A0319A7284F081D3AD4
:100100000319AB284F08993A0319AF28B3280230D6
:1001100024009100D52E053024009100D52E083002
:1001200024009100D52E0B3024009100D52E0D30E7
:1001300024009100D52E0E3024009100D52E1230CF
:1001400024009100D52E143024009100D52E1B30B0
:1001500024009100D52E1D3024009100D52E993019
:1001600024009100D52E24009101D52E24001108E1
:100170002000CE00D52E2400141D2C2A20004F086C
:10018000023A0319EC284F08053A031904294F08CD
:10019000083A031952294F080B3A0319A0294F08AE
:1001A0000D3A0319B0294F080E3A0319C0294F0818
:1001B000123A0319D8294F08143A0319E6294F08AF
:1001C0001B3A0319FE294F081D3A0319132A4F0839
:1001D000993A03191C2A242A2000AD0120000C1E84
:1001E000F3282000AD0A20002D08AE00013A031DBF
:1001F000FC2824009101FF280130240091002000F8
:10020000CF012000D101D52E200044084504031D54
:10021000182920000E1910290130240091001329FB
:100220000230240091002000C40A0319C50AD52E0B
:1002300020000E193229250018352000AD00AD35FB
:10024000AE0125001A0830392000AE00AE0E0F3086
:10025000AE052D08AF002E08AD002F04AE0024001F
:1002600091004A29250018352000AD00AD35AE01BA
:1002700025001A0830392000AE00AE0E0F30AE0552
:100280002D08AF002E08AD002F04AE00AD002D09E3
:10029000240091002000CF012000D1012000C401E2
:1002A000C501D52E200044084504031D6629200001
:1002B0000E1A5E29013024009100612902302400C9
:1002C00091002000C40A0319C50AD52E20000E1A79
:1002D0008029250011352000AD00AD35AE01250087
:1002E000130830392000AE00AE0E0F30AE052D08D9
:1002F000AF002E08AD002F04AE0024009100982915
:10030000250011352000AD00AD35AE0125001308E4
:1003100030392000AE00AE0E0F30AE052D08AF0014
:100320002E08AD002F04AE00AD002D092400910071
:100330002000CF012000D1012000C401C501D52E2D
:1003400020005208013A031DA92901302400910020
:10035000AB29240091012000CF012000D101D52E2E
:1003600020005308013A031DB929013024009100EF
:10037000BB29240091012000CF012000D101D52EFE
:100380002000AD0120000C1DC7292000AD0A20006F
:100390002D08AE00013A031DD02924009101D32974
:1003A0000130240091002000CF012000D101D52E82
:1003B00028001719DE2924009101E12901302400C9
:1003C00091002000CF012000D101D52E2000AD01E9
:1003D00020008B1DED292000AD0A20002D08AE0065
:1003E000013A031DF729013024009100F929240066
:1003F00091012000CF012000D101D52E200054080A
:10040000013A0319082A20005508013A031D0C2A55
:100410000130240091000E2A240091012000CF0118
:100420002000D101D52E2000480824009100200092
:10043000CF012000D101D52E1530240091002000DD
:10044000CF012000D101D52E240091012000D1013F
:100450002000C401C501D52E003020004F04031D2B
:10046000682A240011082000CF004F08023A03191F
:10047000612A4F08053A0319612A4F08083A0319FF
:10048000612A4F080B3A0319612A4F080D3A0319E4
:10049000612A4F080E3A0319612A4F08123A0319CC
:1004A000612A4F08143A0319612A4F081B3A0319AD
:1004B000612A4F081D3A0319612A4F08993A031D12
:1004C000652A01302000D100D52E2000D101D52E83
:1004D00020004508803E803E031D02320330440266
:1004E000031C762A02302000C400C50120004F08FA
:1004F000013A0319C82A4F08033A0319E82A4F089A
:10050000043A03190A2B4F08063A03192C2B4F08FB
:10051000073A03194E2B4F08093A0319702B4F085D
:100520000A3A0319902B4F080C3A0319A42B4F08D1
:100530000F3A0319C52B4F08103A0319E72B4F0840
:10054000113A0319092C4F08133A03192B2C4F08A1
:10055000153A03194F2C4F08163A0319A22C4F08CD
:10056000173A0319F52C4F08183A0319482D4F086C
:10057000193A03199B2D4F081A3A03190A2E4F08EE
:100580001C3A0319792E4F08AA3A0319902ECF2E40
:10059000200044084504031DDD2A24001108200022
:1005A000C2002000AD002D08031DD92A22000C1620
:1005B000DB2A22000C122000CF012400141CE32AA5
:1005C00011082000D0002000C40A0319C50AD52E46
:1005D000200044084504031DFF2A240011082000C0
:1005E000C2002000AD00AE00AF012E08FE000030BA
:1005F000FF0000308931D42182312000CF01240056
:10060000141C052B11082000D0002000C40A031977
:10061000C50AD52E200044084504031D212B2400C3
:1006200011082000C2002000AD00AE00AF012E086E
:10063000FE000030FF0001308931D42183312000D9
:10064000CF012400141C272B11082000D00020000B
:10065000C40A0319C50AD52E200044084504031D09
:10066000432B240011082000C2002000AD00AE0082
:10067000AF012E08FE000030FF00003089318421D8
:1006800083312000CF012400141C492B11082000C5
:10069000D0002000C40A0319C50AD52E2000440842
:1006A0004504031D652B240011082000C200200012
:1006B000AD00AE00AF012E08FE000030FF0001309B
:1006C0008931842183312000CF012400141C6B2B3D
:1006D00011082000D0002000C40A0319C50AD52E35
:1006E000200044084504031D852B0030FE00003027
:1006F000FF00003087319527833122000C1620003F
:10070000D4012000D5012000CF012400141C8B2B24
:1007100011082000D0002000C40A0319C50AD52EF4
:10072000200044084504031D992B2000D20120001D
:10073000CF012400141C9F2B11082000D0002000A2
:10074000C40A0319C50AD52E200044084504031D18
:10075000BA2B240011082000C2002000AD002D0893
:10076000031DB52B2000D301B82B01302000D3008E
:100770002000CF012400141CC02B11082000D00041
:100780002000C40A0319C50AD52E200044084504D8
:10079000031DDC2B240011082000C2002000AD0046
:1007A000AE00AF012E08FE000030FF0000308731A0
:1007B000952783312000CF012400141CE22B11085F
:1007C0002000D0002000C40A0319C50AD52E20003D
:1007D00044084504031DFE2B240011082000C2001C
:1007E0002000AD00AE00AF012E08FE000030FF007B
:1007F00001308731952783312000CF012400141C5C
:10080000042C11082000D0002000C40A0319C50AD6
:10081000D52E200044084504031D202C2400110877
:100820002000C2002000AD002D08031D1A2C280056
:1008300017111C2C28001715200093102000CF0141
:100840002400141C262C11082000D0002000C40A0B
:100850000319C50AD52E200044084504031D442C65
:10086000240011082000C2002000AD002D08031D47
:100870003E2C00308A31BB228431422C01308A3137
:10088000BB2284312000CF012400141C4A2C110803
:100890002000D0002000C40A0319C50AD52E20006C
:1008A0004508803E803E031D023202304402031898
:1008B000972C20004408423E2000AD000030AE00DE
:1008C000200045080318450A0319682C2000AE07CC
:1008D00020002D0884002E088500240011088000C7
:1008E00020004408013A031D972C4508003A031DD7
:1008F000972C200042082000AD00B000AE00AF01F0
:10090000AD01200043082000AE00AF00B1012F0868
:10091000AD0700300318310FB0072D08FE00300876
:10092000FF0000308A319C2284312000CF01240056
:10093000141C9D2C11082000D0002000C40A0319AB
:10094000C50AD52E20004508803E803E031D023298
:10095000023044020318EA2C20004408423E2000E2
:10096000AD000030AE00200045080318450A031909
:10097000BB2C2000AE0720002D0884002E08850027
:1009800024001108800020004408013A031DEA2CCD
:100990004508003A031DEA2C200042082000AD0063
:1009A000B000AE00AF01AD01200043082000AE0052
:1009B000AF00B1012F08AD0700300318310FB007A9
:1009C0002D08FE003008FF0001308A319C2284315E
:1009D0002000CF012400141CF02C11082000D000AE
:1009E0002000C40A0319C50AD52E20004508803E00
:1009F000803E031D02320230440203183D2D2000C8
:100A00004408423E2000AD000030AE002000450802
:100A10000318450A03190E2D2000AE0720002D08EB
:100A200084002E088500240011088000200044085E
:100A3000013A031D3D2D4508003A031D3D2D2000C0
:100A400042082000AD00B000AE00AF01AD012000B3
:100A500043082000AE00AF00B1012F08AD07003001
:100A60000318310FB0072D08FE003008FF000030DA
:100A70008A317D2285312000CF012400141C432DB2
:100A800011082000D0002000C40A0319C50AD52E81
:100A900020004508803E803E031D023202304402A1
:100AA0000318902D20004408423E2000AD00003085
:100AB000AE00200045080318450A0319612D2000E7
:100AC000AE0720002D0884002E08850024001108A0
:100AD000800020004408013A031D902D4508003A8B
:100AE000031D902D200042082000AD00B000AE0094
:100AF000AF01AD01200043082000AE00AF00B101FE
:100B00002F08AD0700300318310FB0072D08FE0085
:100B10003008FF0001308A317D2285312000CF016D
:100B20002400141C962D11082000D0002000C40AB7
:100B30000319C50AD52E20004508803E803E031DBE
:100B40000232023044020318FF2D20004408423EC6
:100B50002000AD000030AE00200045080318450A13
:100B60000319B42D2000AE0720002D0884002E08A4
:100B7000850024001108800020004408013A031D6C
:100B8000FF2D4508003A031DFF2D200042082000DC
:100B9000AD00B000AE00AF01AD0120004308200061
:100BA000AE00AF00B1012F08AD0700300318310FC0
:100BB000B0072D08FE003008FF0000308A319C226B
:100BC0008531200042082000AD00B000AE00AF012A
:100BD000AD01200043082000AE00B100B201310891
:100BE000AD0700300318320FB0072D08FE003008A3
:100BF000FF0000308A317D2285312000CF012400A2
:100C0000141C052E11082000D0002000C40A03196E
:100C1000C50AD52E20004508803E803E031D0232C5
:100C20000230440203186E2E20004408423E200089
:100C3000AD000030AE00200045080318450A031936
:100C4000232E2000AE0720002D0884002E088500EA
:100C500024001108800020004408013A031D6E2E74
:100C60004508003A031D6E2E200042082000AD000A
:100C7000B100AE00B001AD01200043082000AE007D
:100C8000B000B2013008AD0700300318320FB107D1
:100C90002D08FE003108FF0001308A319C22863188
:100CA000200042082000AD00B100AE00B001AD014F
:100CB000200043082000AE00B200B3013208AD07A7
:100CC00000300318330FB1072D08FE003108FF0074
:100CD00001308A317D2286312000CF012400141C8E
:100CE000742E11082000D0002000C40A0319C50A80
:100CF000D52E200044084504031D852E240011082C
:100D00002000C800C9012000CF012400141C8B2E34
:100D100011082000D0002000C40A0319C50AD52EEE
:100D2000200044084504031DC42E2400110820009F
:100D3000C2002000AD0003302D02031CA32E78302A
:100D40002D02031CAA2E2000CF012000C40A031983
:100D5000C50AD52E20002D35240092002000121245
:100D600023001515910120004208230093005530FF
:100D70009600AA30960095142000121EBC2E121266
:100D8000230015112000CF012400141CCA2E1108C5
:100D90002000D0002000C40A0319C50AD52E240063
:100DA000141CD52E11082000D000240015160900AF
:100DB0008A31D422863188310020863122000C12FB
:100DC000F430FF0001308A315322863122000C16A4
:100DD00020009111240011082000D00024001516D5
:100DE0001418E82E20008B172000C601C701200030
:100DF000931C252F93102000C60A0319C70A470821
:100E0000803E803E031D023220304602031C252F07
:100E10000030FE000030FF00003087319527873119
:100E20002000B40120000C1E172F2000B40A20005F
:100E30003408B500013A031D202F22000C12222F86
:100E400022000C162000C601C7012000B4012000BA
:100E50008B1D2C2F2000B40A20003408B500013A65
:100E6000031D642F00302000540403194B2F200071
:100E70004B08803E803E031D023201304A020318B7
:100E80004B2F0030FE000030FF0000308931D421AC
:100E900087312000D4010030200055040319642F4D
:100EA00020004D08803E803E031D023201304C027E
:100EB0000318642F0030FE000030FF00003089313D
:100EC000842187312000D501003020005304031D08
:100ED000922F003020005204031D922F2000B401F5
:100EE00020008C1E752F2000B40A20003408B500A5
:100EF000013A031D922F01302000D2000030FE0085
:100F00000030FF0000308931D42187310030FE00ED
:100F10000030FF0000308931842187312000D40166
:100F20002000D5016400F72E08002000A1007F08F2
:100F3000A0007E08A20020005208013A031DA92F3C
:100F4000003020005304031DA92F2000A101A2019D
:100F5000A00120002008803E7F3E031D02320030A9
:100F60002202031CB72FFF302000A200A0012000A6
:100F70002108013A031DC92FA20903142008031CEC
:100F8000200A003CA000143020000E0422008E0035
:100F9000CE2FEB3020000E0522008E002000911095
:100FA0002000911CD02F20002037A300220CA1008C
:100FB000A337A10C250098002000210825009100EE
:100FC00003302000A205A0010339A500A50EF030D2
:100FD000A50525001A08CF392000250425009A0010
:100FE00020002208A1000339A500A50EF030A505B8
:100FF00025001308CF3920002504250093000800A0
:1010000023008C018E0121000C148C140C150C1281
:101010008C168E140E148E110E118E120E122000CC
:101020000C128E110E118E120E1224001508F039BA
:101030000638950015161513951394131413961767
:1010400016141717971217129715171197101710D4
:10105000FE30930088309200951625001308F03971
:1010600093001A08F0399A0026001308F03993000B
:101070001A08F0399A0021008E168E153F30200094
:101080009B00250013083F3993001A083F399A0046
:101090001308F0390C3893001A08F0390C389A000C
:1010A00091011308CF39930098011A08CF399A009B
:1010B0001E08FC399E00F3399E0020001C08873969
:1010C0009C00FC3902389C001C1591102000911CDA
:1010D000662821008E128E113F30280096001708D6
:1010E00003389700783897001711200093102700D5
:1010F0009C131C1322009A139A111A119113911226
:101100009313931223009D1320000B1721009115B8
:10111000200091118B112700920112149214910159
:101120001114911420000B10230091019513151335
:10113000151413082000A10003302102031CA72866
:10114000783021020318A7282135240092000800D6
:101150002830FE008930FF0080308A312422883117
:101160002000B7007F08B6002A30B8008930B900E7
:1011700020003608BA003708BB00FF30B607031C52
:10118000B7033A083B040319252904303807BA008D
:10119000BB01BB0D3908BB073A08FE003B08FF0046
:1011A00080308A31242288312000BD007F08BC00B5
:1011B0003808FE003908FF0080308A312422883147
:1011C0002000BF00BB007F08BE00BA000230380715
:1011D000BA00BB01BB0D3908BB073A08FE003B084B
:1011E000FF0080308A31242288312000BB00C100FA
:1011F0007F08BA00C00020003C08C0003D08C100C4
:10120000FF30BC07031CBD034008410403191F291C
:101210003E08FE003F08FF0080308A3141228931BC
:101220002000C0003A0884003B0885004008800088
:10123000BE0A0319BF0ABA0A0319BB0AFB28063003
:101240002000B8070318B90AB8288631D82E08003C
:101250000F340034033400344E340034013400348D
:10126000ED340A344F34003401340034E1340A34AC
:101270004234003402340034E3340A344434003459
:1012800002340034EE340A34503400340134003473
:10129000EF340A345134003401340034F0340A3469
:1012A0005234003401340034F1340A3453340034FD
:1012B00001340034E5340A34463400340234003456
:1012C000F2340A345434003401340034F3340A3430
:1012D0005534003401340034E7340A3448340034DF
:1012E00002340034E9340A344A340034023400341D
:1012F000EB340A344C34003402340034F4340A340D
:1013000056340034013400342000A1007F08A000CE
:101310007E08A20020005208013A031D98290030DF
:1013200020005304031D98292000A101A201A0015F
:1013300020002008803E7F3E031D02320030220242
:10134000031CA629FF302000A200A00120002108D4
:10135000013A031DB529A20903142008031C200A21
:10136000003CA00022000E16B72922000E12200019
:101370002037A300220CA100A337A10C21082500CF
:10138000910003302000A205A0012208A10003392A
:10139000A400A40EF030A40525001308CF392000C6
:1013A00024042500930008002000A1007F08A0006D
:1013B0007E08A20020005208013A031DE8290030EF
:1013C00020005304031DE8292000A101A201A0016F
:1013D00020002008803E7F3E031D023200302202A2
:1013E000031CF629FF302000A200A00120002108E4
:1013F000013A031D052AA20903142008031C200A30
:10140000003CA00022000E15072A22000E11200029
:101410002037A300220CA100A337A10C210825002E
:10142000980003302000A205A0012208A100033982
:10143000A400A40EF030A40525001A08CF3920001E
:10144000240425009A000800003A03192C2A803A47
:101450000319342AFF0100347E0884007F088500C8
:101460001200FF00000808008A314E22FD00FE0F26
:10147000FF03FF0A8A314E22FC007D08FF007C0832
:101480000800003A0319482A803A03194E2A00340A
:101490007E0884007F088500000808007F088A0015
:1014A0007E08820008002000A1007F08A000200024
:1014B0002008A2002108A300FF30A007031CA103FD
:1014C0002208230403197C2A7630A2000430A300EA
:1014D0000000FF3020002207A400FF30A5002308F1
:1014E0000318230FA5072408A2002508A300240839
:1014F0002504031D682A572A08002000AA007F0837
:10150000AC007E08AB0020008B1D9B2A20002B081E
:101510002000CC0020002C082000CD00200048082E
:10152000FE004908FF0020002A08893184218A3101
:1015300001302000D50008002000A7007F08A90086
:101540007E08A80020008B1DBA2A20002808200051
:10155000CA00200029082000CB0020004808FE0017
:101560004908FF00200027088931D4218A31013041
:101570002000D40008002000A6002000D401200094
:10158000D5010030FE000030FF0000308731952784
:101590008A3120002608013A031DD12A20008B152C
:1015A000D32A20008B11080021001908FC3999006A
:1015B00087397038990099171808C0391F38980072
:1015C0000800003400340034003400340034FF34A8
:1015D000003400340034003400340034003400346B
:0A15E00000340034003400340034FD
:020000040001F9
:02000E00C42FFD
:02001000FF1FD0
:00000001FF
